:100000000C94350C0C94660C0C94660C0C94660CD9
:100010000C94660C0C94660C0C94660C0C94660C98
:100020000C94660C0C94660C0C94660C0C94660C88
:100030000C94660C0C94660C0C94660C0C94660C78
:100040000C94660C0C9498340C94660C0C94660C0E
:100050000C94660C0C94F9330C946C2F0C94DD2CDE
:100060000C94660C0C94EC430C94660C0C94660C8B
:100070000C94660C0C94660C0C94660C0C94660C38
:100080000C94660C0C94660C0C94660C0C94660C28
:100090000C94660C0C94660C0C94660C0C94660C18
:1000A0000C94660C0C94660C0C94660C0C94660C08
:1000B0000C94660C0C94660C0C94660C0C94660CF8
:1000C0000C94660C0C94660C0C94660C0C94660CE8
:1000D0000C94660C0C94660C0C94660C0C94660CD8
:1000E0000C94660CDF2AE22AD12AD52ADB2A192BA6
:1000F000E62AEA2AF02AF42AF82AFE2A022B062BFC
:10010000192B0C2B102B142BF92BFE2B032C0D2C45
:10011000172C902C212C292C312C3B2C452C4F2C8E
:100120005E2C682C902C722C7C2C862CB92FC72F1F
:10013000E62FE92FEC2FEF2FF22FF52FF82FFB2FC3
:10014000FE2F01300B30084AD73B3BCE016E84BCFA
:10015000BFFDC12F3D6C74319ABD56833DDA3D0021
:10016000C77F11BED9E4BB4C3E916BAAAABE00006A
:1001700000803F05A84CCDB2D44EB93836A9020C48
:1001800050B9918688083CA6AAAA2ABE0000008021
:100190003F00434F4D4D554E49434154494F4E004A
:1001A00044525952554E004552524F525300494EF7
:1001B000464F004543484F0020746F6F206C6F6EB0
:1001C0006720657874727573696F6E2070726576DA
:1001D000656E7465640A0020636F6C6420657874D2
:1001E000727573696F6E2070726576656E74656482
:1001F0000A0047322F4733206261642070617261C8
:100200006D65746572730A004731205A3135204696
:1002100031323030300A47312058302059300A000E
:100220003F2856296572626F7365204C6576656C50
:1002300020697320696D706C61757369626C6520EB
:1002400028302D34292E0A00205A3A200020593A0D
:10025000200042656420583A20005072696E742074
:1002600074696D653A200050726F746563746564DB
:100270002050696E0A00B301AE01A701A0019201EE
:100280006F66660044454255473A004B494C4C4521
:10029000442E20004D3131332053006F6B003F0A54
:1002A0000020573A004649524D574152455F4E4152
:1002B0004D453A4D61726C696E20312E312E302DD4
:1002C00052433820284769746875622920534F5576
:1002D0005243455F434F44455F55524C3A687474EE
:1002E00070733A2F2F6769746875622E636F6D2F74
:1002F000556C74696D616B65722F4D61726C696EBE
:100300002050524F544F434F4C5F56455253494F24
:100310004E3A312E30204D414348494E455F5459A5
:1003200050453A4D65322D31363132323220455802
:100330005452554445525F434F554E543A3120551F
:100340005549443A34303232313243352D3646370E
:10035000432D344146302D413832382D424245310B
:1003600034353837363132350A007A5F6D696E3A86
:100370002000795F6D696E3A2000785F6D696E3A92
:1003800020005265706F7274696E6720656E6473C9
:10039000746F70207374617475730A00536574749C
:1003A000696E672054726176656C20416363656C89
:1003B00065726174696F6E3A200053657474696E7A
:1003C00067205265747261637420416363656C6574
:1003D000726174696F6E3A200053657474696E6758
:1003E000205072696E7420416363656C657261743C
:1003F000696F6E3A200053657474696E672050729D
:10040000696E7420616E642054726176656C20415F
:100410006363656C65726174696F6E3A2000205A7F
:1004200000205900580020204D61783A2000205AC1
:1004300000205900580020204D696E3A20004F6E70
:1004400020004F666600536F667420656E64737497
:100450006F70733A200020643A0020693A002070DF
:100460003A0043290A0061626C656420286D696E58
:100470002074656D702000436F6C64206578747221
:1004800075646573206172652000546F6F2066612A
:10049000722066726F6D207265666572656E636547
:1004A00020706F696E740A004572726F723A0000B4
:1004B00000000000000000000000003A20007A5F09
:1004C0006D61783A20007A5F6D696E3A20005A209B
:1004D0004F666673657400416476616E636520667D
:1004E0006163746F723A20004163746976652045D8
:1004F000787472756465723A2000556E6B6E6F7712
:100500006E20636F6D6D616E643A202200205A3A4E
:100510000020593A0020583A00656E6473746F7079
:1005200073206869743A2000000048430000484383
:100530000000484300000000000000000000000030
:10054000205A3A200020593A200042656420583A47
:1005500020006D0046696C616D656E742075736571
:10056000643A200053746174733A20002C204C6F5D
:100570006E67657374206A6F623A2000546F74610D
:100580006C2074696D653A200053746174733A206D
:10059000002C204661696C65643A20002C20466975
:1005A0006E69736865643A20005072696E74733ABC
:1005B000200053746174733A200020403A00202FC9
:1005C0000020543A00205A3A0020593A0020436F44
:1005D000756E7420583A200020453A00205A3A009F
:1005E00020593A00583A0023646566696E652020F8
:1005F00044454641554C545F4B6420002364656676
:10060000696E65202044454641554C545F4B692036
:100610000023646566696E65202044454641554C5B
:10062000545F4B702000504944204175746F7475BD
:100630006E652066696E6973686564212050757403
:1006400020746865206C617374204B702C204B699A
:1006500020616E64204B6420636F6E7374616E74EE
:10066000732066726F6D2062656C6F7720696E749F
:100670006F20436F6E66696775726174696F6E2E65
:10068000680A00504944204175746F74756E652086
:100690006661696C6564212074696D656F75740AA3
:1006A00000504944204175746F74756E6520666111
:1006B000696C6564212054656D7065726174757232
:1006C0006520746F6F20686967680A00204B643A80
:1006D0002000204B693A2000204B703A20000A206D
:1006E000436C617373696320504944200A002054AD
:1006F000753A2000204B753A2000206D61783A2031
:1007000000206D696E3A200020643A200020626962
:1007100061733A20004572726F7220777269746952
:100720006E6720746F20454550524F4D210A0020BE
:100730006279746573290A0053657474696E67730E
:100740002053746F726564202800454550524F4D08
:1007500020636865636B73756D206D69736D61747B
:1007600063680A00206279746573290A0020737433
:100770006F7265642073657474696E677320726547
:100780007472696576656420280048617264636FDD
:100790006465642044656661756C74205365747487
:1007A000696E6773204C6F616465640A0020204D98
:1007B000383531205A005A2D50726F6265204F66CD
:1007C0006673657420286D6D293A0A0020204D3229
:1007D00030302044300A0020204D32303020440098
:1007E0002044697361626C65640A0046696C616DDE
:1007F000656E742073657474696E67733A00204483
:100800000020490020204D33303120500050494411
:100810002073657474696E67733A0A00205A002069
:10082000590020204D323036205800486F6D652029
:100830006F666673657420286D6D290A0020450077
:10084000205A002059002058002042002054002047
:10085000204D323035205300416476616E6365640B
:10086000207661726961626C65733A20533D4D690F
:100870006E20666565647261746520286D6D2F73E6
:10088000292C20543D4D696E2074726176656C2070
:10089000666565647261746520286D6D2F73292CFF
:1008A00020423D6D696E696D756D207365676D657C
:1008B0006E742074696D6520286D73292C20583D55
:1008C0006D6178696D756D205859206A65726B206D
:1008D000286D6D2F73292C20205A3D6D6178696D2C
:1008E000756D205A206A65726B20286D6D2F7329F3
:1008F0002C2020453D6D6178696D756D2045206A1D
:1009000065726B20286D6D2F73290A00205400201A
:10091000520020204D323034205000416363656C1A
:1009200065726174696F6E733A20503D7072696EC2
:1009300074696E672C20523D726574726163742015
:10094000616E6420543D74726176656C0A002045C6
:1009500000205A0020590020204D3230312058000C
:100960004D6178696D756D20416363656C65726179
:1009700074696F6E20286D6D2F7332293A0A00203A
:100980004500205A0020590020204D323033205895
:10099000004D6178696D756D20666565647261747E
:1009A000657320286D6D2F73293A0A0020450020B9
:1009B0005A0020590020204D3932205800537465C8
:1009C00070732070657220756E69743A0A00526502
:1009D00073656E643A20006F6B00627573793A201C
:1009E00070617573656420666F7220696E707574CE
:1009F0000A00627573793A207061757365642066C8
:100A00006F7220757365720A00627573793A20708F
:100A1000726F63657373696E670A004B494C4C458E
:100A2000442E20005072696E7465722068616C7487
:100A300065642E206B696C6C28292063616C6C6581
:100A400064210A002020506C616E6E6572427566EA
:100A500066657242797465733A2000204672656556
:100A6000204D656D6F72793A2000436F6D70696C2F
:100A700065643A204A616E20323520323031370ABF
:100A800000207C20417574686F723A20284D6533D0
:100A900044290A00323031362D31322D30362031A2
:100AA000323A303000204C617374205570646174A8
:100AB00065643A2000312E312E302D5243380A0021
:100AC0004D61726C696E0020536F66747761726558
:100AD0002052657365740A00205761746368646FFF
:100AE000672052657365740A002042726F776E202A
:100AF0006F75742052657365740A002045787465BB
:100B0000726E616C2052657365740A00506F776570
:100B10007255700A0073746172740A005761726EC4
:100B2000696E673A20486F6D696E672042756D7017
:100B30002044697669736F72203C20310A000000FE
:100B4000A0400000A040000000400000484300001A
:100B5000484300004843FFFFFF6265640A002C2001
:100B600073797374656D2073746F70706564212080
:100B70004865617465725F49443A20004B494C4CAA
:100B800045442E2000202D20496E76616C6964203A
:100B90006578747275646572206E756D6265722019
:100BA000210A004572723A204D415854454D50007B
:100BB0004D415854454D50207472696767657265A0
:100BC00064004572723A204D494E54454D50004DD7
:100BD000494E54454D50207472696767657265646B
:100BE00000544845524D414C2052554E41574159B1
:100BF00000546865726D616C2052756E6177617921
:100C00000048656174696E67206661696C6564009F
:100C100048656174696E67206661696C6564004847
:100C2000656174696E67206661696C65640048651A
:100C30006174696E67206661696C656400000021FB
:100C400000240027002A002D00300033000101009D
:100C500000040107010A0100002200250028002BE2
:100C6000002E003100340002010000050108010BD4
:100C700001000020002300260029002C002F003254
:100C80000000010000030106010901050505050733
:100C90000508080808020202020A0A0808040404F7
:100CA0000401010101010101010303030303030323
:100CB00003040707070C0C0C0C0C0C0C0C020202B2
:100CC0000206060606060606060B0B0B0B0B0B0BA5
:100CD0000B01021020200808102040102040800244
:100CE0000102010804020101020408102040808072
:100CF00040201008040201800402018040201008F6
:100D000004020108040201010204081020408001CD
:100D10000204081020408000000A0B02090C0D0E8E
:100D200008070304010000000000000000000000AC
:100D300000000000000000000000000000000000B3
:100D40000000001211100000000000000000000070
:100D50000000000000000000000000000024F4D4A7
:100D60003050C38E20C2A24017828B7011127A912C
:100D70000D816CD90AA861E108C758660761514323
:100D8000061E4B5D05C145A7041A411104093D9893
:100D900003713931034036DB0265339102D430549C
:100DA00002802E1D02632CEE01752AC501B028A019
:100DB00001102781018F2564012B244B01E022348F
:100DC00001AC211F018D200D01801FFC00841EED50
:100DD00000971DDF00B81CD200E61BC600201BBC1C
:100DE00000641AB200B219A8000A19A0006A189982
:100DF00000D117910040178B00B516840031167E84
:100E000000B31579003A157300C7146F0058146ABF
:100E100000EE1366008813630025135E00C7125BA3
:100E2000006C12570015125400C111510070114F7F
:100E30000021114B00D61049008D10470046104488
:100E40000002104200C00F4000800F3E00420F3CE5
:100E500000060F3B00CB0E3800930E37005C0E35BA
:100E600000270E3400F30D3200C10D3100900D301B
:100E700000600D2E00320D2D00050D2C00D90C2B1D
:100E800000AE0C2900850C29005C0C2700350C27CE
:100E9000000E0C2600E80B2400C40B2400A00B233A
:100EA000007D0B23005A0B2100390B2100180B2069
:100EB00000F80A1F00D90A1E00BB0A1E009D0A1D69
:100EC00000800A1D00630A1C00470A1B002C0A1B35
:100ED00000110A1A00F7091A00DD091900C40919DE
:100EE00000AB091900920917007B09180063091764
:100EF000004C09160036091600200916000A0915CB
:100F000000F5081500E0081400CC081400B8081417
:100F100000A4081400900813007D0812006B081349
:100F20000058081200460812003408110023081166
:100F3000001208110001081100F0071000E007106E
:100F400000D0071000C0071000B0070F00A1071065
:100F50000091070E0083070F0074070F0065070E4E
:100F60000057070E0049070E003B070D002E070E25
:100F70000020070D0013070D0006070D00F9060CF1
:100F800000ED060D00E0060C00D4060C00C8060CAF
:100F900000BC060C00B0060C00A4060B0099060C61
:100FA000008D060B0082060B0077060B006C060B0B
:100FB0000061060A0057060B004C060A0042060AAA
:100FC0000038060A002E060A0024060A001A060A3D
:100FD000001006090007060A00FD050900F40509CE
:100FE00000EB050900E2050900D9050900D0050953
:100FF00000C7050900BE050900B5050800AD0508D4
:1010000000A50509009C050800940508008C05084A
:1010100000840508007C050800740508006C0507BD
:1010200000650508005D050700560508004E050728
:10103000004705070040050800380507003105078F
:10104000002A050700230507001C050600160507F2
:10105000000F0507000805060002050700FB04064F
:1010600000F5040700EE040600E8040600E20407A9
:1010700000DB040600D5040600CF040600C9040600
:1010800000C3040600BD040600B7040600B1040551
:1010900000AC040600A6040600A00405009B04069C
:1010A0000095040500900406008A040500850405E7
:1010B00000800406007A040500750405007004052C
:1010C000006B04050066040500610405005C04056E
:1010D0000057040500520405004D040500480405AE
:1010E00000430405003E0404003A040500350405ED
:1010F00000300404002C0405002704040023040528
:10110000001E0404001A040400160405001104045F
:10111000000D040400090405000404040000040494
:1011200000FC030400F8030400F4030400F00304CB
:1011300000EC030400E8030400E4030400E00304FB
:1011400000DC030400D8030400D4030400D003042B
:1011500000CC030400C8030300C503030024F40407
:10116000D9201BC40C5C0E9804C4095F026507718A
:1011700001F405F900FB04B30048048700C10369CA
:10118000005803550003034500BE023A00840231B3
:101190000053022A002902250004022000E4011C59
:1011A00000C8011900AF0117009801140084011351
:1011B00000710110006101100051010E0043010D8A
:1011C0000036010B002B010B0020010B001501095B
:1011D000000C01090003010800FB000800F30008EF
:1011E00000EB000700E4000600DE000600D8000661
:1011F00000D2000600CC000500C7000500C20005B3
:1012000000BD000400B9000400B5000400B10004F2
:1012100000AD000400A9000400A5000300A2000323
:10122000009F0004009B000300980003009500024B
:101230000093000300900003008D0002008B000368
:101240000088000200860002008400030081000282
:10125000007F0002007D0002007B00020079000296
:1012600000770001007600020074000200720001A5
:1012700000710002006F0002006D0001006C0002AE
:10128000006A0001006900020067000100660001B9
:1012900000650001006400020062000100610001BD
:1012A00000600001005F0002005D0001005C0001C1
:1012B000005B0001005A00010059000100580001C4
:1012C00000570001005600010055000100540001C4
:1012D00000530000005300010052000100510001C2
:1012E00000500001004F0001004E0000004E0001C0
:1012F000004D0001004C0001004B0000004B0001BC
:10130000004A0001004900010048000000480001B7
:1013100000470001004600000046000100450000B3
:1013200000450001004400010043000000430001AB
:1013300000420000004200010041000000410001A5
:1013400000400001003F0000003F0001003E00009F
:10135000003E0001003D0000003D0001003C000097
:10136000003C0000003C0001003B0000003B00018D
:10137000003A0000003A0001003900000039000185
:10138000003800000038000000380001003700007D
:101390000037000100360000003600000036000172
:1013A0000035000000350000003500010034000069
:1013B000003400000034000100330000003300005E
:1013C0000033000100320000003200000032000152
:1013D0000031000000310000003100010030000049
:1013E0000030000000300001002F0000002F00003E
:1013F000002F0000002F0001002E0000002E000032
:10140000002E0001002D0000002D0000002D000026
:10141000002D0001002C0000002C0000002C00001A
:10142000002C0001002B0000002B0000002B00000E
:10143000002B0001002A0000002A0000002A000002
:10144000002A0001002900000029000000290000F6
:1014500000290000002900010028000000280000E9
:1014600000280000002800000028000100270000DC
:1014700000270000002700000027000000270001CF
:1014800000260000002600000026000000260000C4
:1014900000260001002500000025000000250000B6
:1014A00000250000002500000025000100240000A8
:1014B000002400000024000000240000002400019B
:1014C0000023000000230000002300000023000090
:1014D0000023000000230000002300010022000080
:1014E0000022000000220000002200000022000074
:1014F0000022000100210000002100000021000066
:101500000021000000210000002100000021000156
:10151000002000000020000000200000002000004B
:10152000002000000020000000200000002000013A
:10153000001F0000001F0000001F0000001F00002F
:10154000001F0000001F0000001F0001001E00001F
:10155000001E0000001E0000001E00000025697330
:101560000025696D20256973002569682025696D4E
:101570002025697300256964202569682025696D27
:10158000202569730025697920256964202569680B
:101590002025696D2025697300656E717565756517
:1015A000696E672022004E6F204C696E65204E7573
:1015B0006D626572207769746820636865636B7318
:1015C000756D2C204C617374204C696E653A200057
:1015D0004B494C4C45442E20005072696E74657224
:1015E0002073746F707065642064756520746F205B
:1015F0006572726F72732E20466978207468652058
:101600006572726F7220616E6420757365204D394A
:10161000393920746F20726573746172742E2028BA
:1016200054656D706572617475726520697320729E
:10163000657365742E205365742069742061667427
:1016400065722072657374617274696E67290A002D
:101650004E6F20436865636B73756D20776974689E
:10166000206C696E65206E756D6265722C204C6110
:101670007374204C696E653A2000636865636B7310
:10168000756D206D69736D617463682C204C617396
:1016900074204C696E653A20004C696E65204E7569
:1016A0006D626572206973206E6F74204C61737473
:1016B000204C696E65204E756D6265722B312C2051
:1016C0004C617374204C696E653A20004D313130A5
:1016D0000020496E76616C69642065787472756467
:1016E0006572200020746F6F206C6F6E67206578C4
:1016F00074727573696F6E2070726576656E74654D
:10170000640A0020636F6C64206578747275736975
:101710006F6E2070726576656E7465640A00700184
:101720002C0190012701B0012201C0011D01F0012F
:1017300018011002130130020E016002090190022B
:101740000401C002FF000003FA004003F50080031B
:10175000F000D003EB002004E6007004E100E00498
:10176000DC004005D700C005D2004006CD00D00601
:10177000C8008007C3003008BE00F008B900C009E7
:10178000B400B00AAF00B00BAA00D00CA500000E48
:10179000A000500F9B00C010960050129100001442
:1017A0008C00C0158700B0178200B0197D00D01BD7
:1017B0007800001E730040206E0090226900F02423
:1017C000640040275F0090295A00E02B5500102E3E
:1017D000500020304B0010324600E033410090357D
:1017E0003C001037370070383200A0392D00B03A75
:1017F0002800A03B2300603C1E00103D1900903DD6
:101800001400103E0F00703E0A00C03E0500003F6D
:1018100000002066697273740A005A00590058006B
:10182000486F6D6520006563686F3A004E414E4910
:101830004E495459494E46CDCCCC3D0AD7233C178E
:10184000B7D13877CC2B329595E6241FB14F0A00DB
:101850000020410000C84200401C4620BCBE4CCACB
:101860001B0E5AAEC59D7400F87911241FBECFEF30
:10187000D1E2DEBFCDBF00E00CBF13E0A0E0B2E0DC
:10188000E0EAFDE001E00BBF02C007900D92AA392B
:10189000B107D9F72DE0AAE9B3E001C01D92A53741
:1018A000B207E1F71CE0C5E3DCE000E006C02197E9
:1018B0000109802FFE010E94DD7AC433D10780E048
:1018C0000807A9F70E94BD570C94CE860C9400001F
:1018D000CF92EF92FF920F931F93CF93DF93CDB7E9
:1018E000DEB72C970FB6F894DEBF0FBECDBFC09009
:1018F0005804E0EBFCE080859185A285B3854481A6
:10190000558166817781008111812281338109832C
:101910001A832B833C834D835E836F83788789870B
:101920009A87AB87BC87AE01475F5F4FBE016B5F95
:101930007F4FCE0101960E94B953E0900002F090D3
:10194000010200910202109103022CEB3CE0AE0177
:10195000475F5F4FBE016B5F7F4FCE0101960E94D4
:101960001A442C960FB6F894DEBF0FBECDBFDF91A0
:10197000CF911F910F91FF90EF90CF90089588E83D
:1019800093E19093220C8093210C80916F008D7FC6
:1019900080936F009091430D8091440D981719F03A
:1019A0000E948B34F7CF1092D8061092D706809100
:1019B0006F00826080936F000E94EF330E94CA29FB
:1019C0008FEA93E00E941C520E947C220C94203FDC
:1019D0004F925F926F927F928F929F92AF92BF923F
:1019E000CF92DF92EF92FF92CF93DF93E4EEF5E098
:1019F0008491EF012196882321F00E943740FE0157
:101A0000F7CF6091B00C7091B10C8091B20C9091B5
:101A1000B30C42E00E944543E0EEF5E08491EF0113
:101A20002196882321F00E943740FE01F7CF609174
:101A3000B40C7091B50C8091B60C9091B70C42E04B
:101A40000E944543ECEDF5E08491EF012196882357
:101A500021F00E943740FE01F7CF6091B80C7091E1
:101A6000B90C8091BA0C9091BB0C42E00E944543A6
:101A7000E8EDF5E08491EF012196882321F00E94A2
:101A80003740FE01F7CF6091BC0C7091BD0C809186
:101A9000BE0C9091BF0C42E00E9445438FB7F89472
:101AA0004090BE035090BF036090C0037090C1038C
:101AB0008090C2039090C303A090C403B090C5036C
:101AC000C090C603D090C703E090C803F090C9034C
:101AD0008FBFEDECF5E08491EF012196882321F092
:101AE0000E943740FE01F7CFC301B2010E945B4163
:101AF000E9ECF5E08491EF012196882321F00E9422
:101B00003740FE01F7CFC501B4010E945B41E5EC0F
:101B1000F5E08491EF012196882321F00E9437405F
:101B2000FE01F7CFC701B6010E945B418AE0DF9159
:101B3000CF91FF90EF90DF90CF90BF90AF909F90AC
:101B40008F907F906F905F904F900C943740CF9321
:101B5000DF93E1ECF5E08491EF012196882321F0F9
:101B60000E943740FE01F7CF6091E40C7091E50CC4
:101B70008091E60C9091E70C41E00E944543EEEB2A
:101B8000F5E08491EF012196882321F00E943740EF
:101B9000FE01F7CF6091E20C7091E30C072E000C70
:101BA000880B990B0E948D8241E00E944543EAEB2D
:101BB000F5E08491EF012196882321F00E943740BF
:101BC000FE01F7CFE0914A04F0E0E452F94F608162
:101BD00070E080E090E0DF91CF910C945B412F9218
:101BE0003F924F925F926F927F928F929F92AF92AD
:101BF000BF92CF92DF92EF92FF920F931F93CF93FA
:101C0000DF93CDB7DEB7E0970FB6F894DEBF0FBE17
:101C1000CDBF85E40E946D3E882321F00E94E73EFF
:101C20008C0102C000E010E083E40E946D3E882336
:101C300029F00E94E73E9FA38EA304C025E030E078
:101C40003FA32EA385E50E946D3E882321F00E94CC
:101C5000AF3E88A701C018A683E50E946D3E882389
:101C600031F00E94F43E1B0189879A8708C0212C1D
:101C7000312C17FD0AC036E1398743E44A87011544
:101C8000110539F410924A0404C05CE8598782E4D3
:101C90008A8710925F0410925E040E94D12C4B013F
:101CA0005C01012B19F40BE113E00EC00EE213E00E
:101CB000D8018D918D01882319F00E943740F8CF0B
:101CC0008AE00E943740B4C1F80181918F018823D6
:101CD00019F00E943740F8CF8AE00E9437400E94F6
:101CE000E82E82E38093DC0681E0809339028E8EB9
:101CF0009F8EA8A2B9A289A69AA6ABA6BCA61D864D
:101D0000F0E4FE872CE12F8736E4388B198A1A8A93
:101D10001B8A1C8A198E1A8E1B8E1C8E1D8A1E8A87
:101D20001F8A188EC12CD12C7601F2E34F2E512C34
:101D3000612C712C82E390E0A0E0B0E08D839E8363
:101D4000AF83B8871AA21BA21CA21DA291E09D8F8F
:101D50001C861B861FA618AA00E010E0809139029D
:101D6000882309F45FC10E94D12C69837A838B8315
:101D70009C8380919A03882309F48AC00E94A13031
:101D8000A091E40CAFA7B091E50CB8AB0091E60CC4
:101D90001091E70C9D01A80169897A898B899C893A
:101DA0000E94878287FF06C0EFA5E98BF8A9FA8B0E
:101DB0000B8B1C8B2FA538A9A8016D857E858F857F
:101DC00098890E94817D181634F42FA52D8738A993
:101DD0003E870F87188B4D8D91014423E1F1498592
:101DE0005A856FA578A9C8010E94817D18160CF04C
:101DF0004FC049815A816B817C81481959096A0910
:101E00007B09DB01CA0188589341A109B109B7FDDB
:101E10003FC08D819E81AF81B88584199509A6093F
:101E2000B709B595A795979587958093DC064AA342
:101E30005BA36CA37DA3298A3A8A59855B8B8A852B
:101E40008C8B29813A814B815C812E8F3F8F48A3F7
:101E500059A31D8E1DC049855A856FA578A9C80153
:101E60000E94878287FF14C089819A81AB81BC81DF
:101E70002E8D3F8D48A159A1821B930BA40BB50B4E
:101E8000AC01BD01485853416109710977FFEFC0AA
:101E900020E030E040EA51E4B10189859A850E9452
:101EA000E67A9B01AC016FA578A9C8010E94817DEB
:101EB00018166CF4E1EAF6E084918F010F5F1F4F72
:101EC000882309F4B5C00E943740F801F5CF80E3BC
:101ED00098EFAFEFBFEF29A53AA54BA55CA5821BF4
:101EE000930BA40BB50B29813A814B815C81820F46
:101EF000931FA41FB51FB7FD0CC029DE8AE00E9406
:101F0000374089819A81AB81BC8189A79AA7ABA709
:101F1000BCA789819A81AB81BC81880F991FAA1FB8
:101F2000BB1F2E8D3F8D48A159A1821B930BA40B83
:101F3000B50B88199909AA09BB0981389F44A241A8
:101F4000B10568F0E3E8F6E084918F010F5F1F4F61
:101F5000882309F46DC00E943740F801F5CF4B8506
:101F60005C858EA19FA1841795070CF0F7CEE6E261
:101F7000F6E084918F010F5F1F4F882321F00E94AC
:101F80003740F801F6CFB701A60181E196E00E9443
:101F9000D1438AE00E9437404D895E896F89788DF0
:101FA0008CEF95E00E94D1438AE00E943740498D32
:101FB0005A8D6B8D7C8D87EE95E00E94D1438AE02F
:101FC0000E94374098A5992399F1C0922002D0929F
:101FD0002102E0922202F09223022CE933E549E447
:101FE0005EE36D897E898F89988D0E94EC82609373
:101FF0001C0270931D0280931E0290931F022CE915
:1020000033E549E45EE3698D7A8D8B8D9C8D0E946A
:10201000D27B609318027093190280931A029093F6
:102020001B0206C080913902811102C00E94E82E75
:1020300081E090E090935F0480935E04E0960FB699
:10204000F894DEBF0FBECDBFDF91CF911F910F91EE
:10205000FF90EF90DF90CF90BF90AF909F908F90C8
:102060007F906F905F904F903F902F9008954B8599
:102070005C85141615060CF029C18AA09BA0ACA0A3
:10208000BDA0880E991EAA1EBB1E2AA13BA14CA171
:102090005DA1281B390B4A0B5B0BCA01B901A301D7
:1020A00092010E948486A50194010E94C07A4D800D
:1020B0005E806F807884420E531E641E751E34E16C
:1020C00043165104610471040CF141E544165104B6
:1020D000610471043CF453E3451651046104710436
:1020E00034F422C050E5452E512C612C712C4D82C8
:1020F0005E826F82788683E690E0A0E0B0E084198B
:102100009509A609B7092C013D0112C024E130E070
:1021100040E050E02D833E834F83588744E1442EB6
:10212000512C612C712C04C04D825E826F827886A6
:10213000EDE0F7E084919F012F5F3F4F882341F04E
:102140002DA73EA70E9437402DA53EA5F901F2CF4D
:102150006D817E818F8198850E945B41E8E0F7E088
:1021600084919F012F5F3F4F882341F02DA73EA709
:102170000E9437402DA53EA5F901F2CFC301B2015F
:102180000E945B414D855E856F85788981E097E08F
:102190000E94D14349895A896B897C898AEF96E0EC
:1021A0000E94D1434B855C85433051050CF48EC0B1
:1021B000C301B2010E948D8220E030E040E850E48B
:1021C0000E94EC826B017C012D853E854F855889EC
:1021D00069897A898B899C890E94E57A2BED3FE099
:1021E00049E450E40E94EC8220E030E040E05FE30C
:1021F0000E94EC829B01AC01C701B6010E94D27B18
:102200006B017C01C501B4010E948D822FE632E191
:1022100043E85AE30E94EC824B015C01B701A6013E
:1022200084EF96E00E94D143B501A4018EEE96E0C2
:102230000E94D1432AE939E949E15FE3C701B601C8
:102240000E94EC826B017C019B01AC010E94E67A4A
:10225000A50194010E94D27B6D8B7E8B8F8B988F12
:10226000A5019401C701B6010E94EC8220E030E094
:1022700040E05EE30E94EC82698F7A8F8B8F9C8FA7
:10228000EEEDF6E084915F015FEFA51AB50A8823B1
:1022900021F00E943740F501F5CFB701A60188ED86
:1022A00096E00E94D1434D895E896F89788D82EDD9
:1022B00096E00E94D143498D5A8D6B8D7C8D8CECBC
:1022C00096E00E94D1438AE00E9437408D819E8132
:1022D000AF81B885840D951DA61DB71DB595A79531
:1022E000979587958093DC068B859C8501969C87C6
:1022F0008B872D863E8699859F87AA85A88B8980A6
:102300009A80AB80BC80B1E0BD8FC2CDEF92FF92CE
:102310000F931F93CF93DF93CDB7DEB769970FB6B7
:10232000F894DEBF0FBECDBF83E50E946D3E8823CB
:1023300031F00E94E73E8E34910509F400C11E8AF7
:102340001F8A188E198EE2EBF5E084918F010F5FE2
:102350001F4F882321F00E943740F801F6CFE9EAA9
:10236000F5E084918F010F5F1F4F882321F00E94B9
:102370003740F801F6CF6091540D7091550D80E013
:1023800090E04AE00E94DA40ECE9F5E084918F01A8
:102390000F5F1F4F882321F00E943740F801F6CFCE
:1023A0006091560D7091570D80E090E04AE00E94D8
:1023B000DA40E1E9F5E084918F010F5F1F4F882338
:1023C00021F00E943740F801F6CF6091540D7091D2
:1023D000550D8091560D9091570D681B790B80918A
:1023E000460D9091470D019721E030E0029710F0E3
:1023F00020E030E0621B730B80E090E04AE00E9436
:10240000DA408AE00E943740E9E8F5E084918F01E4
:102410000F5F1F4F882321F00E943740F801F6CF4D
:102420008091580D9091590DA0915A0DB0915B0D6E
:102430008E8B9F8BA88FB98FBE016F5F7F4FCE01B0
:1024400046960E946C3FECE7F5E084918F010F5FA8
:102450001F4F811105C0CE0101967C018C0104C083
:102460000E943740F801F1CFF80181918F01882354
:1024700019F00E943740F8CF80915C0D90915D0D6E
:10248000A0915E0DB0915F0D8E8B9F8BA88FB98F41
:10249000BE016F5F7F4FCE0146960E946C3FECE617
:1024A000F5E084918F010F5F1F4F882321F00E9478
:1024B0003740F801F6CFF70181917F01882319F0A9
:1024C0000E943740F8CF8AE00E943740E4E6F5E00A
:1024D00084918F010F5F1F4F882321F00E943740A6
:1024E000F801F6CFE4E5F5E084918F010F5F1F4F0F
:1024F000882321F00E943740F801F6CF20E030E039
:102500004AE754E46091600D7091610D8091620D15
:102510009091630D0E94D27B42E00E944543E2E528
:10252000F5E084918F010F5F1F4F882321F00E94F7
:102530003740F801F6CF8AE00E94374004C086E4B5
:102540009DE00E944A3C69960FB6F894DEBF0FBE2C
:10255000CDBFDF91CF911F910F91FF90EF90089524
:10256000BF92CF92DF92EF92FF920F931F93CF9380
:10257000DF938FE9E82E83E0F82E00EB1CE099E56D
:10258000C92E94E0D92EC9E5D2E0BC2E84E0B80E65
:1025900089910E946D3E8823D9F00E94F43EF60195
:1025A0002081211104C020915D04222331F0F80123
:1025B000208131814281538103C020E030E0A901B4
:1025C0000E94E67AF70160837183828393830AC055
:1025D000F80180819181A281B381F7018083918389
:1025E000A283B383F4E0EF0EF11C0C5F1F4F8FEF5B
:1025F000C81AD80ABC12CCCF86E40E946D3E88234C
:1026000049F00E94F43E20E030E0A9010E94817D63
:1026100018167CF18091620483FD3CC06091AB038D
:102620007091AC038091AD039091AE032091BC0CEE
:102630003091BD0C4091BE0C5091BF0CE0916E0DDD
:10264000EE2341F10E94E57A9B01AC016091600D9F
:102650007091610D8091620D9091630D0E94E67AF8
:102660006093600D7093610D8093620D9093630D84
:1026700011C00E94F43E20E030E040E752E40E94A6
:10268000D27B6093000270930102809302029093C8
:102690000302C0CFDF91CF911F910F91FF90EF9078
:1026A000DF90CF90BF9008958F929F92AF92BF928C
:1026B000CF92DF92EF92FF920F931F93CF93DF930E
:1026C000CDB7DEB760970FB6F894DEBF0FBECDBFB3
:1026D000B22ED32E7C01EE0CFF1CEE0CFF1CC701AA
:1026E0008055934F4C01FC0110821182128213829B
:1026F0004D875E876F87788B0E94203F4D855E8572
:102700006F857889F4014083518362837383C0901D
:10271000580420E030E0A901B8018B2D9D2D0E94C6
:102720008782811108C0F701E951FD4F9080A18097
:10273000B280D38002C0902EA12E8091B80C9091CF
:10274000B90CA091BA0CB091BB0C4091B40C509153
:10275000B50C6091B60C7091B70C0091B00C109153
:10276000B10C2091B20C3091B30C09831A832B83E6
:102770003C834D835E836F83788789879A87AB8795
:10278000BC87AE01475F5F4FBE016B5F7F4FCE01DD
:1027900001960E94B953E92CFA2C0B2D1D2D2CEB20
:1027A0003CE0AE01475F5F4FBE016B5F7F4FCE01E4
:1027B00001960E941A440E94EF331092FF05609622
:1027C0000FB6F894DEBF0FBECDBFDF91CF911F9142
:1027D0000F91FF90EF90DF90CF90BF90AF909F90C0
:1027E0008F9008959091BD03891781F08093BD0368
:1027F000811108C00E94CA298FEA93E00E941C52EE
:102800000C947C2280EB9CE00C941C5208958091E7
:10281000060690910706A0910806B09109068093DC
:10282000000290930102A0930202B09303028091F0
:1028300004069091050690931502809314020C945F
:102840002C408091000290910102A0910202B0916F
:1028500003028093060690930706A0930806B093A0
:1028600009068091140290911502909305068093B9
:10287000040684E690E090931502809314020C9471
:102880002C404F925F926F927F928F929F92AF9265
:10289000BF92CF92DF92EF92FF920F931F93CF934D
:1028A000DF935C014B01EA018901409000025090E6
:1028B00001026090020270900302288139814A81EE
:1028C0005B816091B80C7091B90C8091BA0C9091B9
:1028D000BB0C0E94878287FF2AC0F801C080D1808C
:1028E000E280F38020E030E0A901C701B6010E9438
:1028F0008782811106C0C12CD12C20E8E22E20E471
:10290000F22EC0920002D0920102E0920202F092F6
:10291000030288819981AA81BB818093B80C90932E
:10292000B90CA093BA0CB093BB0C0E94680CF801D0
:10293000C080D180E280F38020E030E0A901C701AF
:10294000B6010E948782811107C095E5C92EDC2C53
:1029500095E0E92E93E4F92EC0920002D092010294
:10296000E0920202F0920302F50180819181A2813E
:10297000B3818093B00C9093B10CA093B20CB09340
:10298000B30CF40180819181A281B3818093B40C56
:102990009093B50CA093B60CB093B70C0E94680C42
:1029A000288139814A815B816091B80C7091B90CA2
:1029B0008091BA0C9091BB0C0E94817D181654F541
:1029C000F801C080D180E280F38020E030E0A901EE
:1029D000C701B6010E948782811106C0C12CD12C8B
:1029E00080E8E82E80E4F82EC0920002D092010226
:1029F000E0920202F092030288819981AA81BB8150
:102A00008093B80C9093B90CA093BA0CB093BB0C04
:102A10000E94680C0E94EF33409200025092010223
:102A20006092020270920302DF91CF911F910F9189
:102A3000FF90EF90DF90CF90BF90AF909F908F90DE
:102A40007F906F905F904F9008951F93CF93DF9387
:102A5000CDB7DEB72C970FB6F894DEBF0FBECDBF53
:102A60009091200C981761F1182F0E949F56809129
:102A7000B00C9091B10CA091B20CB091B30C8987BD
:102A80009A87AB87BC878091B40C9091B50CA091CC
:102A9000B60CB091B70C8D839E83AF83B887198233
:102AA0001A821B821C829E012F5F3F4F48EB5CE025
:102AB000BE016B5F7F4FCE010996E3DE1093200CC1
:102AC00080E02C960FB6F894DEBF0FBECDBFDF912D
:102AD000CF911F9108959B01AC0164EB7CE080EBEA
:102AE0009CE0CFCE2F923F924F925F926F927F9257
:102AF0008F929F92AF92BF92CF92DF92EF92FF920E
:102B00000F931F93CF93DF93CDB7DEB72F970FB6F9
:102B1000F894DEBF0FBECDBF1C017E876D874F8747
:102B20008901409000025090010260900202709072
:102B300003020E949F5685E595E5A5E0B3E48093E6
:102B4000000290930102A0930202B093030219863F
:102B50001A861B861C8620E030E040E751E4ED85B4
:102B6000FE8560817181828193810E94E57A6D8307
:102B70007E838F83988720E030E040E751E4F101C5
:102B800060817181828193810E94E57A69837A8371
:102B90008B839C839E01275F3F4F48EB5CE0BE0127
:102BA0006B5F7F4FCE0101966CDE81E04EDF8823A4
:102BB00039F0C12CD12C80ECE82E8FE7F82EF8C02C
:102BC0000E942C4020E030E040E751E46091D80CB6
:102BD0007091D90C8091DA0C9091DB0C0E94E67A0E
:102BE0002091CC0C3091CD0C4091CE0C5091CF0C5B
:102BF0000E94E67A6B017C0169877A878B879C87C4
:102C00008090C00C9090C10CA090C20CB090C30CEE
:102C100020E030E0A901C501B4010E94878287FF4E
:102C20000AC0A5019401C701B6010E94E57A69872F
:102C30007A878B879C872091B80C3091B90C409192
:102C4000BA0C5091BB0C69857A858B859C850E9456
:102C5000878287FF0EC080E090E0A0E8B0E489831F
:102C60009A83AB83BC83BE016F5F7F4FCE01099611
:102C700032DF80E090E0A0E0B0E48D839E83AF83FC
:102C8000B88720E030E042E553E46091D80C7091C1
:102C9000D90C8091DA0C9091DB0C0E94E57A20919E
:102CA000CC0C3091CD0C4091CE0C5091CF0C0E94A9
:102CB000E67A69837A838B839C83BE016B5F7F4F47
:102CC000CE01019608DF1092FF050E94CA298FEA03
:102CD00093E00E941C528091B7039091B803A09199
:102CE000B903B091BA038093B80C9093B90CA09338
:102CF000BA0CB093BB0C0E94203FC090B80CD0908F
:102D0000B90CE090BA0CF090BB0CFF85F11103C038
:102D10000E949F5604C080E098DE81114ACF0330A4
:102D200011050CF43DC0EAE4F5E084918F010F5FDA
:102D30001F4F882321F00E943740F801F6CFF101A0
:102D4000608171818281938143E00E944543E5E483
:102D5000F5E084918F010F5F1F4F882321F00E94BF
:102D60003740F801F6CFED85FE8560817181828163
:102D7000938143E00E944543E0E4F5E084918F01B4
:102D80000F5F1F4F882321F00E943740F801F6CFD4
:102D900043E0C701B6010E9445438AE00E943740E4
:102DA000409200025092010260920202709203026D
:102DB000C701B6012F960FB6F894DEBF0FBECDBF88
:102DC000DF91CF911F910F91FF90EF90DF90CF9007
:102DD000BF90AF909F908F907F906F905F904F903B
:102DE0003F902F90089580E1EFE9F3E0A0EBBCE085
:102DF00001900D928A95E1F708958F929F92AF927C
:102E0000BF92CF92EF92FF920F931F93CF93DF93D6
:102E1000CDB7DEB72C970FB6F894DEBF0FBECDBF8F
:102E20004B015C01C0905804EFE9F3E08085918587
:102E3000A285B385448155816681778100811181A6
:102E40002281338109831A832B833C834D835E83E4
:102E50006F83788789879A87AB87BC87AE01475F86
:102E60005F4FBE016B5F7F4FCE0101960E94B95349
:102E7000850174012BEA33E0AE01475F5F4FBE016D
:102E80006B5F7F4FCE0101960E941A442C960FB6BD
:102E9000F894DEBF0FBECDBFDF91CF911F910F9190
:102EA000FF90EF90CF90BF90AF909F908F9008953C
:102EB000CF92DF92EF92FF920F931F93CF93DF9306
:102EC000EC01CC0FDD1FCC0FDD1FFE01E053F34FF3
:102ED00020E030E0A90160817181828193810E94AC
:102EE000E67AFE01EC53F34F208131814281538118
:102EF0000E94E67A6B017C01CE018C5C9A4F0E94A5
:102F0000663F8E01045B1B4FA70196010E94E67A83
:102F1000F8016083718382839383CE01885D9A4F29
:102F20000E94663FC85DDD4FA70196010E94E67AC8
:102F3000688379838A839B83DF91CF911F910F915F
:102F4000FF90EF90DF90CF9008950E94893C0E94FF
:102F5000B63D0E947F2980E090E0AADF81E090E00A
:102F6000A7DF82E090E0A4CFEF92FF921F93CF9370
:102F7000DF937C01C62FD72F142F160FF701808106
:102F800091810E944D86899320910A0630910B060B
:102F9000A901480F511D50930B0640930A06F701F3
:102FA000808191810196918380831C13E7CFDF910B
:102FB000CF911F91FF90EF900895CF92DF92EF9203
:102FC000FF920F931F93CF93DF936C01C62FD72FE0
:102FD000F42EF60EFC1609F43BC08E016991F60141
:102FE000808191810E947686F601808191810E9484
:102FF0004D86E82EF8018081E816C1F0E6E2F8E19E
:1030000084918F010F5F1F4F882321F00E9437406A
:10301000F801F6CFE5E1F7E084918F010F5F1F4FD4
:10302000882321F00E943740F801F6CF20910A064C
:1030300030910B06C9018E0D911D90930B06809364
:103040000A06F60180819181019691838083C2CF27
:10305000DF91CF911F910F91FF90EF90DF90CF9074
:1030600008954F925F926F927F92AF92BF92CF92EC
:10307000DF92EF92FF920F931F93CF93DF9300970E
:1030800009F456C0FC01208121FD52C0EB018C01E6
:1030900044A455A466A477A4ACA4BDA4CEA4DFA484
:1030A0009501A601C301B2010E94878287FF40C03B
:1030B000A3019201C301B2010E94EC822B013C01E9
:1030C000F80180AD91ADA2ADB3ADBC01CD0190587A
:1030D0009B01AC010E94E67AF80124A935A946A912
:1030E00057A90E94EC829B01AC01C301B2010E946E
:1030F000E57A0E94CA7D7B018C019B01AC01B50180
:10310000C6010E94878287FF02C075018601970170
:10311000A801B501C6010E948782882349F0A70152
:10312000B8014CA75DA76EA77FA7888181608883BF
:10313000DF91CF911F910F91FF90EF90DF90CF9093
:10314000BF90AF907F906F905F904F9008952F92B7
:103150003F924F925F926F927F928F929F92AF9227
:10316000BF92CF92DF92EF92FF920F931F93CF9374
:10317000DF93CDB7DEB768970FB6F894DEBF0FBE0A
:10318000CDBF1C015B018A01DC01DC966D917D9154
:103190008D919C91DF970E948B826B017C01F501E0
:1031A00020813181428153810E94EC820E94BB7B4D
:1031B0000E94497C69877A878B879C87D8012D91EB
:1031C0003D914D915C91C701B6010E94EC820E9435
:1031D000BB7B0E94497C6D877E878F87988B298572
:1031E0003A854B855C85283731054105510540F40A
:1031F00088E790E0A0E0B0E089879A87AB87BC873A
:103200002D853E854F855889283731054105510563
:1032100040F488E790E0A0E0B0E08D879E87AF871C
:10322000B88B9101285B3F4FD9018D919D910D90F5
:10323000BC91A02D8D839E83AF83B887BC01CD0147
:103240000E948D8269837A838B839C8369857A85CA
:103250008B859C850E948B82698B7A8B8B8B9C8B58
:1032600020E030E0A90169817A818B819C810E94F4
:103270008782882339F1A7019601C701B6010E9410
:10328000EC824B015C0129893A894B895C89CA012E
:10329000B9010E94EC829B01AC01C501B4010E94FE
:1032A000E57A4B015C0129813A814B815C81CA013D
:1032B000B9010E94E67A9B01AC01C501B4010E94EC
:1032C000D27B03C060E070E0CB010E94BB7B0E9418
:1032D000437C2B013C016D817E818F819885909587
:1032E0008095709561957F4F8F4F9F4F0E948D8283
:1032F0004B015C016D857E858F8598890E948B824C
:103300006D837E838F83988720E030E0A901C5011B
:10331000B4010E948782882349F12D813E814F812B
:103320005885CA01B9010E94EC826D8B7E8B8F8B10
:10333000988FA7019601C701B6010E94EC829B01FC
:10334000AC016D897E898F89988D0E94E57A6B0129
:103350007C01A5019401C501B4010E94E67A9B019C
:10336000AC01C701B6010E94D27B03C060E070E0EF
:10337000CB010E94787CF10182889388A488B5886B
:1033800075016401C418D508E608F7080E94437C5B
:10339000C61AD70AE80AF90AF7FE6BC020E030E047
:1033A000A90169817A818B819C810E94878288230F
:1033B00009F447C029813A814B815C81CA01B90176
:1033C0000E94E67A6B017C01C501B4010E948B82E8
:1033D0009B01AC01C701B6010E94EC826B017C012C
:1033E00029893A894B895C89CA01B9010E94EC821A
:1033F0009B01AC01C701B6010E94E57A6B017C011B
:103400002D813E814F815885CA01B9010E94EC820D
:103410009B01AC01C701B6010E94E67A6B017C01F9
:1034200020E030E040E850E469817A818B819C8122
:103430000E94EC829B01AC01C701B6010E94D27BC5
:1034400003C060E070E0CB010E94BB7B0E94437C24
:103450002B013C0197FF03C0412C512C3201481431
:1034600059046A047B0410F024013501C12CD12CCD
:1034700076018FB7F894D1019C9193FD22C0F101A0
:10348000468A578A608E718EC40CD51CE61CF71CC8
:103490005A96CD92DD92ED92FC925D97E05CFF4FE3
:1034A00029853A854B855C8520833183428353830C
:1034B00034962D853E854F855889208331834283FC
:1034C00053838FBF68960FB6F894DEBF0FBECDBF93
:1034D000DF91CF911F910F91FF90EF90DF90CF90F0
:1034E000BF90AF909F908F907F906F905F904F9024
:1034F0003F902F9008950F931F93CF93C82F811162
:1035000024C0E6E2F8E184918F010F5F1F4F88230A
:1035100021F00E943740F801F6CFEDEBF9E08491FD
:103520008F010F5F1F4F882321F00E943740F80161
:10353000F6CFE6E2F8E184918F010F5F1F4F8823F9
:1035400021F00E943740F801F6CF4091EE035091F0
:10355000EF036091F0037091F10385EB99E00E9415
:10356000D1434091F2035091F3036091F4037091C1
:10357000F50382EB99E00E94D1434091F60350910C
:10358000F7036091F8037091F9038FEA99E00E94C4
:10359000D1434091FA035091FB036091FC03709179
:1035A000FD038CEA99E00E94D1438AE00E943740F3
:1035B000C11124C0E6E2F8E184918F010F5F1F4F33
:1035C000882321F00E943740F801F6CFE1E9F9E0C5
:1035D00084918F010F5F1F4F882321F00E94374095
:1035E000F801F6CFE6E2F8E184918F010F5F1F4FFB
:1035F000882321F00E943740F801F6CF4091100453
:1036000050911104609112047091130488E899E0BC
:103610000E94D14340911404509115046091160406
:103620007091170485E899E00E94D14340911804F5
:103630005091190460911A0470911B0482E899E07A
:103640000E94D14340911C0450911D0460911E04BE
:1036500070911F048FE799E00E94D1438AE00E9495
:103660003740C11124C0E6E2F8E184918F010F5F79
:103670001F4F882321F00E943740F801F6CFE0E683
:10368000F9E084918F010F5F1F4F882321F00E9482
:103690003740F801F6CFE6E2F8E184918F010F5F41
:1036A0001F4F882321F00E943740F801F6CF409148
:1036B000000450910104609102047091030487E5B5
:1036C00099E00E94404140910404509105046091AA
:1036D00006047091070484E599E00E9440414091FE
:1036E00008045091090460910A0470910B0481E56B
:1036F00099E00E94404140910C0450910D0460916A
:103700000E0470910F048EE499E00E9440418AE01B
:103710000E943740C11124C0E6E2F8E184918F0194
:103720000F5F1F4F882321F00E943740F801F6CF2A
:10373000EBE1F9E084918F010F5F1F4F882321F0A7
:103740000E943740F801F6CFE6E2F8E184918F015C
:103750000F5F1F4F882321F00E943740F801F6CFFA
:10376000409128045091290460912A0470912B04FF
:1037700082E199E00E94D1434091200450912104BC
:1037800060912204709123048FE099E00E94D1435C
:1037900040912404509125046091260470912704DF
:1037A0008CE099E00E94D1438AE00E943740C11129
:1037B00024C0E6E2F8E184918F010F5F1F4F882358
:1037C00021F00E943740F801F6CFE8E5F8E0849157
:1037D0008F010F5F1F4F882321F00E943740F801AF
:1037E000F6CFE6E2F8E184918F010F5F1F4F882347
:1037F00021F00E943740F801F6CF409146045091E5
:10380000470460914804709149048FE498E00E9455
:10381000D14340914204509143046091440470911B
:1038200045048CE498E00E94D14340913E045091BD
:103830003F04609140047091410489E498E00E9443
:10384000404140912E0450912F04609130047091BA
:10385000310486E498E00E94D143409132045091B3
:103860003304609134047091350483E498E00E943D
:10387000D1434091360450913704609138047091DF
:10388000390480E498E00E94D14340913A04509179
:103890003B0460913C0470913D048DE398E00E94EC
:1038A000D1438AE00E943740C11124C0E6E2F8E12A
:1038B00084918F010F5F1F4F882321F00E943740B2
:1038C000F801F6CFEBE2F8E084918F010F5F1F4F14
:1038D000882321F00E943740F801F6CFE6E2F8E1B4
:1038E00084918F010F5F1F4F882321F00E94374082
:1038F000F801F6CF4091D00C5091D10C6091D20CD0
:103900007091D30C82E298E00E94D1434091D40C94
:103910005091D50C6091D60C7091D70C8FE198E046
:103920000E94D1434091D80C5091D90C6091DA0C8F
:103930007091DB0C8CE198E00E94D1438AE00E94F8
:103940003740C11124C0E6E2F8E184918F010F5F96
:103950001F4F882321F00E943740F801F6CFEDE099
:10396000F8E084918F010F5F1F4F882321F00E94A0
:103970003740F801F6CFE6E2F8E184918F010F5F5E
:103980001F4F882321F00E943740F801F6CF409165
:10399000200250912102609122027091230284E062
:1039A00098E00E94D1432CE933E549E45EE360915D
:1039B0001C0270911D0280911E0290911F020E94B4
:1039C000D27BAB01BC0181E098E00E94B6432CE9B8
:1039D00033E549E45EE36091180270911902809129
:1039E0001A0290911B020E94EC82AB01BC018EEF87
:1039F00097E00E94B6438AE00E943740C1112CC074
:103A0000E6E2F8E184918F010F5F1F4F882321F0D8
:103A10000E943740F801F6CFEBEEF7E084918F017A
:103A20000F5F1F4F882321F00E943740F801F6CF27
:103A30008091FF03882321F08AE00E9437403AC03A
:103A4000E0EEF7E084918F010F5F1F4F882391F123
:103A50000E943740F801F6CF40910F0250911002BA
:103A6000609111027091120287ED97E00E94D1439C
:103A70008AE00E9437408091FF03811127C0CC2348
:103A800019F0ECECF7E00CC0E6E2F8E184918F016C
:103A90000F5F1F4F8823A9F30E943740F801F6CF2C
:103AA00084918F010F5F1F4F882381F00E94374060
:103AB000F801F6CFE6E2F8E184918F010F5F1F4F26
:103AC000882351F20E943740F801F6CFC11124C07B
:103AD000E6E2F8E184918F010F5F1F4F882321F008
:103AE0000E943740F801F6CFE6EBF7E084918F01B2
:103AF0000F5F1F4F882321F00E943740F801F6CF57
:103B0000E6E2F8E184918F010F5F1F4F882321F0D7
:103B10000E943740F801F6CF4091C00C5091C10C83
:103B20006091C20C7091C30C8DEA97E00E94D14362
:103B30008AE0CF911F910F910C943740AF92BF92C2
:103B4000CF92DF92EF92FF920F931F93CF93DF9369
:103B5000CDB7DEB7E0970FB6F894DEBF0FBECDBF8E
:103B600080E1EDEAF2E0DE01919601900D928A95F6
:103B7000E1F780E1EDEBF2E0DE01519601900D926C
:103B80008A95E1F780E1EDECF2E0DE01119601901B
:103B90000D928A95E1F7DE0191966EEE73E0AE012B
:103BA0004F5E5F4F20E134E0CE0101965C0180E082
:103BB00094E08E010F5C1F4FCD90DD90ED90FD9055
:103BC000FB01C192D192E192F192BF01FA01C19041
:103BD000D190E190F190AF01F901C192D192E192BF
:103BE000F1929F01F501C190D190E190F1905F01B8
:103BF000FC01C192D192E192F192CF01A017B107DD
:103C0000D9F680E090E8ABE3B5E480932804909384
:103C10002904A0932A04B0932B048093200490934A
:103C20002104A0932204B09323048093240490934E
:103C30002504A0932604B093270410924604109202
:103C40004704109248041092490480E29EE4A0E0E8
:103C5000B0E080933E0490933F04A0934004B0935F
:103C600041041092420410924304109244041092B2
:103C7000450480E090E0A0E2B1E480932E049093AC
:103C80002F04A0933004B0933104809332049093B6
:103C90003304A0933404B09335048DEC9CECACEC6D
:103CA000BEE38093360490933704A0933804B09316
:103CB000390480E090E0A0EAB0E480933A04909365
:103CC0003B04A0933C04B0933D041092D80C109296
:103CD000D90C1092DA0C1092DB0C1092D40C1092CA
:103CE000D50C1092D60C1092D70C1092D00C1092CA
:103CF000D10C1092D20C1092D30C1092C00C1092D6
:103D0000C10C1092C20C1092C30C8BE794E1A2E09C
:103D1000B1E48093200290932102A0932202B093F9
:103D200023028CE993E5A9E4BDE380931C02909300
:103D30001D02A0931E02B0931F0285E199EAA8EA32
:103D4000B3E48093180290931902A0931A02B093DF
:103D50001B021092FF0380E090E0A0E4B0E48093A7
:103D60000F0290931002A0931102B09312021092CE
:103D70000E021092FE03E9D8E6E2F8E184918F0189
:103D80000F5F1F4F882321F00E943740F801F6CFC4
:103D9000EAE8F7E084918F010F5F1F4F882321F03D
:103DA0000E943740F801F6CFE0960FB6F894DEBFD8
:103DB0000FBECDBFDF91CF911F910F91FF90EF907C
:103DC000DF90CF90BF90AF900895CF92DF92EF92A7
:103DD000FF920F931F93CF93DF93CDB7DEB76F970B
:103DE0000FB6F894DEBF0FBECDBF84E690E09C8F87
:103DF0008B8F44E0BE016F5E7F4FCE014B96B4D8EF
:103E000042E0BE01675E7F4FCE014B96ADD843E0E6
:103E100050E0BE016F5E7F4F8DED92E00E943F7ECD
:103E2000892B09F06FC11D861E861F86188A109285
:103E30000B0610920A0640E16EEE73E0CE014B963F
:103E400093D840E160E174E0CE014B968DD840E11B
:103E500060E074E0CE014B9687D844E068E274E0FD
:103E6000CE014B9681D844E060E274E0CE014B96DF
:103E70007BD844E064E274E0CE014B9675D844E010
:103E800066E474E0CE014B966FD844E062E474E0DF
:103E9000CE014B9669D844E06EE374E0CE014B96B8
:103EA00063D840E16EE274E0CE014B965DD84CE001
:103EB00060ED7CE0CE014B9657D81F8E1E8E1D8E76
:103EC00041E0BE01615E7F4FCE014B964DD844E08C
:103ED000BE01635F7F4FCE014B9646D841E0BE01E5
:103EE000625E7F4FCE014B963FD841E0BE01635EDC
:103EF0007F4FCE014B9638D810E08E8D9D8D212FAF
:103F000030E0899FC001112444E02817390744F4A8
:103F1000BE01635F7F4FCE014B9626D81F5FEDCF6A
:103F200060EC7CE0CE014B961FD81D861E861F8656
:103F3000188A1AE0115044E0BE0131F0635F7F4FF0
:103F4000CE014B9611D8F6CF675F7F4FCE014B96CF
:103F50000BD844E0BE016B5F7F4FCE014B9604D877
:103F600044E0BE016F5F7F4FCE014B960E94B417B5
:103F700044E0BE01635F7F4FCE014B960E94B417B1
:103F800011112DC0CD84DE84EF84F88820E030E864
:103F90004BE355E4C701B6010E9487828823F9F0FC
:103FA000C0922002D0922102E0922202F0922302DB
:103FB00044E06CE172E0CE014B960E94B41744E0FD
:103FC00068E172E0CE014B960E94B41744E0BE0156
:103FD000635F7F4FCE014B960E94B4170CC004E084
:103FE000015049F044E0BE01635F7F4FCE014B9624
:103FF0000E94B417F5CF1F5F143009F0B9CF42E02B
:10400000BE01695E7F4FCE014B960E94B4171150DE
:1040100029F044E0BE01635F7F4FF5CF42E0BE016F
:104020006B5E7F4FCE014B960E94B41741E06FEF5D
:1040300073E0CE014B960E94B41744E0BE01635F6B
:104040007F4FCE014B960E94B41711110CC08D8585
:104050009E85AF85B88980930F0290931002A0933C
:104060001102B09312021F5F143039F720910A0633
:1040700030910B06898D9A8D2817390759F50E94C2
:10408000A517E6E2F8E184918F010F5F1F4F8111C0
:1040900003C00DED12E004C00E943740F801F3CFD9
:1040A000F80181918F01882319F00E943740F8CFE1
:1040B0006B8D7C8D8DE697E00E94F642E4E6F7E09A
:1040C00084918F010F5F1F4F8823E9F00E943740D2
:1040D000F801F6CFE8EAF4E084918F010F5F1F4FFB
:1040E000882321F00E943740F801F6CFEAE4F7E098
:1040F00084918F010F5F1F4F882321F00E9437406A
:10410000F801F6CF1BDD80E0F6D96F960FB6F89474
:10411000DEBF0FBECDBFDF91CF911F910F91FF90FA
:10412000EF90DF90CF9008958F929F92AF92BF92C1
:10413000CF92DF92EF92FF920F931F93CF93DF9373
:10414000CDB7DEB76F970FB6F894DEBF0FBECDBF09
:10415000198A1A8A1B8A1C8A80E390E3A0E3B0E0E4
:104160008D879E87AF87B88B84E690E09C8F8B8F7E
:1041700044E0BE01635F7F4FCE014B960E94DD1786
:104180008B8D9C8D02969C8F8B8F10920B061092BC
:104190000A0640E16EEE73E0CE014B960E94DD17F9
:1041A00040E160E174E0CE014B960E94DD1740E1F2
:1041B00060E074E0CE014B960E94DD1744E068E2B7
:1041C00074E0CE014B960E94DD1744E060E274E09B
:1041D000CE014B960E94DD1744E064E274E0CE010C
:1041E0004B960E94DD1744E066E474E0CE014B96E6
:1041F0000E94DD1744E062E474E0CE014B960E9419
:10420000DD1744E06EE374E0CE014B960E94DD17AB
:1042100040E16EE274E0CE014B960E94DD174CE067
:1042200060ED7CE0CE014B960E94DD1783E08F8F1E
:104230008E8F1D8E198A1A8A1B8A1C8A41E0BE0144
:10424000635E7F4FCE014B960E94DD1744E0BE01B6
:104250006F5E7F4FCE014B960E94DD1741E0BE019D
:10426000615E7F4FCE014B960E94DD1741E0BE019B
:10427000625E7F4FCE014B960E94DD1710E08F8D5E
:104280009E8D212F30E0899FC001112444E0281722
:1042900039074CF4BE016F5E7F4FCE014B960E94F2
:1042A000DD171F5FECCF60EC7CE0CE014B960E94E7
:1042B000DD17198A1A8A1B8A1C8A1AE0115049F0E4
:1042C00044E0BE016F5E7F4FCE014B960E94DD172A
:1042D000F5CF84EB90E09A87898780EF90E09C8708
:1042E0008B8786E490E09E838D838EE690E09887AE
:1042F0008F831A8219821C821B8244E0BE01675F91
:104300007F4FCE014B960E94DD1744E0BE016B5FEC
:104310007F4FCE014B960E94DD1744E0BE016F5FD8
:104320007F4FCE014B960E94DD17C12C80E8D82E1E
:104330008BE3E82E85E4F82E812C912C90E8A92EB1
:104340009FE3B92E111122C044E060E272E0CE0179
:104350004B960E94DD1744E06CE172E0CE014B9673
:104360000E94DD1744E068E172E0CE014B960E94A6
:10437000DD17898A9A8AAB8ABC8A44E0BE016F5EE7
:104380007F4FCE014B960E94DD171CC0C98ADA8A86
:10439000EB8AFC8A44E0BE016F5E7F4FCE014B96F4
:1043A0000E94DD17198A1A8A1B8A1C8A04E00150B0
:1043B00049F044E0BE016F5E7F4FCE014B960E94F4
:1043C000DD17F5CF1F5F143009F0BCCF84E190E01A
:1043D0009A8F898F42E0BE01675E7F4FCE014B9678
:1043E0000E94DD1780E090E8ABE3B5E4898B9A8BFF
:1043F000AB8BBC8B115049F044E0BE016F5E7F4F28
:10440000CE014B960E94DD17F5CF80E290E0988FA9
:104410008F8B42E0BE01695E7F4FCE014B960E94BA
:10442000DD1741E06FEF73E0CE014B960E94DD1780
:1044300011110CC080910F0290911002A0911102F5
:10444000B0911202898B9A8BAB8BBC8B44E0BE017E
:104450006F5E7F4FCE014B960E94DD171F5F1430B9
:1044600039F780910A0690910B069E8B8D8BEB8C11
:10447000FC8C84E690E09C8F8B8F44E06DED72E0C5
:10448000CE014B960E94DD1742E0BE016B5E7F4F6E
:10449000CE014B960E94DD17E6E2F8E184918F0190
:1044A0000F5F1F4F882321F00E943740F801F6CF9D
:1044B000B70188E397E00E94F642EFE2F7E08491CB
:1044C0008F010F5F1F4F882321F00E943740F801B2
:1044D000F6CF6F960FB6F894DEBF0FBECDBFDF915B
:1044E000CF911F910F91FF90EF90DF90CF90BF90F1
:1044F000AF909F908F9008958CE0EFEAF3E0A0EBEF
:10450000BCE001900D928A95E1F708954F925F9279
:104510006F927F928F929F92AF92BF92CF92DF92D3
:10452000EF92FF920F931F93CF93DF9300D000D0B1
:10453000CDB7DEB77C01FC01EA5AF44F1491029723
:1045400029F481E00E94251581112EC16701CC0C50
:10455000DD1CCC0CDD1CC601865B944F0E94663FBF
:104560004B015C01612F110F770B880B990B0E9497
:104570008D822B013C0120E030E040EC5FE3C5017F
:10458000B4010E94EC82A30192010E94EC82AB0173
:10459000BC0100E010E09801C7010E94541332E012
:1045A000E316F10479F486E49BE00E94663F20E084
:1045B00030E040E751E40E94878287FD09C086E42D
:1045C0009BE003C0C601825C944F0E94663F04C01A
:1045D00060E070E080E791E49B01AC01C301B201AF
:1045E0000E94EC824B015C0120E030E0A9010E94B6
:1045F0008782882309F45AC000E010E09801B501D1
:10460000A4017058C7010E94541386E0E1EEF2E065
:10461000DE01119601900D928A95E1F7F701EE0FF8
:10462000FF1F81E090E08C0F9D1FE80FF91F808134
:10463000918118161906D4F0E6E2F8E184918F0111
:104640000F5F1F4F882321F00E943740F801F6CFFB
:10465000ECE1FBE084918F010F5F1F4F882321F075
:104660000E943740F801F6CF8AE090E0BC01990F34
:10467000880B990B0E948D829B01AC01F601E951D8
:10468000FD4F60817181828193810E94D27B2B01D9
:104690003C01A5019401C501B4010E94E67AAB0179
:1046A000BC0193018201C7010E94541381E0F7010C
:1046B000E851F34F8083F701E952FC4F8083860174
:1046C0000C53134FF8011082118212821382C7011A
:1046D0000E945817C60181559B4F0E94663F960164
:1046E0002055334F5901F601E053F34F20813181BA
:1046F000428153810E94E67AF80120813181428112
:1047000053810E94E67AF5016083718382839383EB
:10471000F2E0EF16F104D1F42091C00C3091C10CFD
:104720004091C20C5091C30C6091B80C7091B90CBF
:104730008091BA0C9091BB0C0E94E57A6093B80C02
:104740007093B90C8093BA0C9093BB0C0E94203FDD
:10475000F601E156FC4FD601A055B34F8D919D91C6
:104760000D90BC91A02D80839183A283B38322E01E
:10477000E216F104C9F480E026960FB6F894DEBF85
:104780000FBECDBFDF91CF911F910F91FF90EF90A2
:10479000DF90CF90BF90AF909F908F907F906F9061
:1047A0005F904F900C94251526960FB6F894DEBFB7
:1047B0000FBECDBFDF91CF911F910F91FF90EF9072
:1047C000DF90CF90BF90AF909F908F907F906F9031
:1047D0005F904F900895EF92FF920F931F93CF93A6
:1047E000DF931F921F92CDB7DEB7809A889A82E03E
:1047F0008093C0001092C50087E08093C400809130
:10480000C10080618093C1008091C1008860809365
:10481000C1008091C10080688093C100E5E1FBE0A8
:1048200084918F010F5F1F4F882321F00E94374032
:10483000F801F6CFE6E2F8E184918F010F5F1F4F98
:10484000882321F00E943740F801F6CF14B710FFFB
:104850000DC0ECE0FBE084917F019FEFE91AF90ABB
:10486000882321F00E943740F701F5CF11FF0DC0DA
:10487000EBEFFAE084917F019FEFE91AF90A8823B0
:1048800021F00E943740F701F5CF12FF0DC0E9EE8D
:10489000FAE084917F019FEFE91AF90A882321F059
:1048A0000E943740F701F5CF13FF0DC0E8EDFAE0A5
:1048B00084917F019FEFE91AF90A882321F00E9471
:1048C0003740F701F5CF15FF0CC0E7ECFAE0849113
:1048D0008F010F5F1F4F882321F00E943740F8019E
:1048E000F6CF14BEE0ECFAE084918F010F5F1F4F0A
:1048F000882321F00E943740F801F6CF80E20E9421
:104900003740E5EBFAE084918F010F5F1F4F88235A
:1049100021F00E943740F801F6CF8AE00E9437402C
:10492000E6E2F8E184918F010F5F1F4F882321F0A9
:104930000E943740F801F6CFE5EAFAE084918F0152
:104940000F5F1F4F882321F00E943740F801F6CFF8
:10495000E4E9FAE084918F010F5F1F4F882321F073
:104960000E943740F801F6CFE1E8FAE084918F0128
:104970000F5F1F4F882321F00E943740F801F6CFC8
:10498000EAE6FAE084918F010F5F1F4F882321F040
:104990000E943740F801F6CFE6E2F8E184918F01FA
:1049A0000F5F1F4F882321F00E943740F801F6CF98
:1049B00020916F0D3091700DCE01019621153105BA
:1049C00019F485579D4002C0821B930B9A838983FB
:1049D00069817A818BE59AE00E94F64260EE74E08C
:1049E00084E49AE00E94F6428AE00E94374081E027
:1049F0008093920680939306809394068093950605
:104A0000E4D98CE0E0EDFCE0A0EBBCE001900D927D
:104A10008A95E1F70E94203F6C9A6D9A9D9A809149
:104A2000010180618093010187ED80937A001092EB
:104A30007E0010927D0080917D00816080937D00DA
:104A400080E888BD80916E00846080936E006AEF7C
:104A500070E080E090E06DD785E090E09093DE0616
:104A60008093DD0680913B0290913C020E94835529
:104A700020E030E040EA50E40E94878287FF0AC0CD
:104A800080913B0290913C02409790933C0280932E
:104A90003B02E8CF83E191E0909341028093400292
:104AA0008091D9069091DA060E94835520E030E883
:104AB00049E853E40E94817D181654F48091D90688
:104AC0009091DA0640969093DA068093D906E8CF63
:104AD00098E288E10FB6F894A895809360000FBE25
:104AE00090936000099A3C9A9A9A80910A01806199
:104AF00080930A0180910A01846080930A010D9AD3
:104B0000159A0F9A179A3A9A429A989AA09A80916F
:104B10000A01826080930A019FB7F89480910B018B
:104B2000826080930B019FBF0898109A0C98149A8A
:104B30003F98479A0B9A1398159A1092D7033E9A6A
:104B40004698179A1092D803389A4098429A109231
:104B5000D90380910A01806480930A019FB7F89479
:104B600080910B018F7B80930B019FBFA09A809156
:104B70000A01816080930A019FB7F89480910B012C
:104B80008E7F80930B019FBF809181008F7E8093E9
:104B900081008091810088608093810080918000F5
:104BA0008D7F80938000809180008E7F8093800035
:104BB000809180008F7380938000809180008F7C33
:104BC0008093800080918100887F82608093810043
:104BD00080E090E490938900809388001092850093
:104BE0001092840080916F00826080936F00109219
:104BF000D2061092D10610921F0C10921E0C84B592
:104C00008D7F84BD84B58E7F84BD80916E0082606F
:104C100080936E0081E080930E0278940E94693444
:104C20001092200C0F900F90DF91CF911F910F9158
:104C3000FF90EF900895159AE7EDF3E01082179A30
:104C40001182429A1282A09A0895E8EAF4E08491CF
:104C5000EF012196882321F00E943740FE01F7CF13
:104C6000E4E2FAE08491EF012196882321F00E948A
:104C70003740FE01F7CF64EF71E080E090E059D655
:104C8000F8940E94E82ED7DF0E941D3FA895FECF22
:104C90004F925F926F927F928F929F92AF92BF924C
:104CA000CF92DF92EF92FF920F931F93CF93DF93F8
:104CB00078D66B017C0180910902882309F465C0D4
:104CC00080915E0490915F04009709F45EC040916A
:104CD00096065091970660919806709199069701F3
:104CE0008601041B150B260B370B37FD61C0833083
:104CF000910509F134F401970CF447C0E6E2F8E1BC
:104D000006C0049709F041C0E6E2F8E12AC08491A8
:104D1000EF012196882321F00E943740FE01F7CF52
:104D2000E9E0FAE08491EF012196882371F10E9475
:104D30003740FE01F7CFE6E2F8E18491EF012196DA
:104D4000882321F00E943740FE01F7CFE2EFF9E01F
:104D50008491EF0121968823C1F00E943740FE0123
:104D6000F7CF8491EF012196882321F00E943740EC
:104D7000FE01F7CFEAEDF9E08491EF012196882357
:104D800021F00E943740FE01F7CF2091090230E068
:104D9000A8EEB3E00E94BF86C60ED71EE81EF91E1D
:104DA000C0929606D0929706E0929806F0929906E5
:104DB00080910106843010F40E94B441F2D5C09075
:104DC000DA03D090DB03E090DC03F090DD03C11444
:104DD000D104E104F104B9F000919B0310919C030C
:104DE00020919D0330919E030C0D1D1D2E1D3F1D16
:104DF0006B017C01C01AD10AE20AF30AF7FC03C076
:104E00008BE19AE022DFC0900A02D0900B02E09082
:104E10000C02F0900D02C114D104E104F104D9F0A8
:104E200000919B0310919C0320919D0330919E0360
:104E30000C0D1D1D2E1D3F1DDC01CB01801B910B98
:104E4000A20BB30BB7FD07C09091430D8091440DA9
:104E5000981709F43BC26091D5039091430D80915E
:104E6000440D981791F0E091440D0EE4E09FF0019D
:104E70001124E657F84F60818091440D9091430DC5
:104E8000891719F08F5F8F70F9CFC62F662329F12C
:104E900088D500919E0610919F062091A006309122
:104EA000A106DC01CB01011511052105310569F4CD
:104EB0008C599F4FAF4FBF4F80939E0690939F0694
:104EC000A093A006B093A10606C0801B910BA20B75
:104ED000B30BB7FF0AC0CFEF08C010929E06109226
:104EE0009F061092A0061092A1066C2F70E087E03A
:104EF00059D48091CE03882309F4FDC000910502A6
:104F000010910602D0910702C09108026091E20C54
:104F10007091E30C072E000C880B990B0E948D8278
:104F200020E030E040E050E40E94E67A98014D2F06
:104F30005C2F0E94878287FDDEC0F090440D912C8B
:104F4000A12CB12CE12C8EE4882E8091430DF81613
:104F500009F45CC08F2D90E0889EF001899EF00DD1
:104F60001124E25CF84F4281538164817581452BA5
:104F7000462B472B81F44681578160857185452BEF
:104F8000462B472B41F44285538564857585452B17
:104F9000462B472BB1F1889E9001899E300D11243C
:104FA000C901825C984F6C01FC0166857785808918
:104FB00091890E948D822B013C01F60162897389DF
:104FC000848995890E948B829B01AC01C301B20147
:104FD0000E94D27BF60120A531A542A553A50E94CF
:104FE000EC823B016C019B01AC01692D7A2D8B2D6C
:104FF0009E2D0E94878287FF04C0962CA72CBC2C74
:10500000ED2C81E08F0D8F70F82E9FCF20914602FE
:10501000309147024091480250914902692D7A2D02
:105020008B2D9E2D0E94EC829B01AC01B8018D2F2F
:105030009C2F0E94E67A6B017C0198014D2F5C2F1A
:105040000E94878287FD14C00091420210914302A2
:10505000D0914402C091450298014D2F5C2FB601BA
:10506000C7010E94817D18161CF08601DE2DCF2D10
:10507000C0909A06D0909B06E0909C06F0909D060A
:1050800098014D2F5C2FC701B6010E94817D181633
:10509000E4F420E037ED43EA5CE3B8018D2F9C2F68
:1050A0000E94EC824B015C0128E431EE4AE75FE3A9
:1050B000C701B6010E94EC829B01AC01C501B4019D
:1050C0000E94E67A8B01D82FC92FC801AD2FBC2FC3
:1050D00080939A0690939B06A0939C06B0939D069E
:1050E000B8018D2F9C2F0E94437C7093E30C60933A
:1050F000E20C0E94335580919A0381110E94BE30C8
:105100008091460D9091470D019709F0E7C080917D
:10511000C80681110CC045D46093C4067093C506BF
:105120008093C6069093C70681E08093C80680915D
:10513000BC0681110CC035D46093B8067093B906D3
:105140008093BA069093BB0681E08093BC0629D475
:105150006B017C018091B006811114C04091660DF5
:105160005091670D28EE33E0429FC001439F900DA0
:10517000529F900D11249093AF068093AE0681E06C
:105180008093B0068091C4069091C506A091C60692
:10519000B091C706B701A601481B590B6A0B7B0BE0
:1051A0008091AE069091AF06A0E0B0E04817590795
:1051B0006A077B07B0F180906A0D90906B0DA0900C
:1051C0006C0DB0906D0D86E49DE00E94823360937B
:1051D0006A0D70936B0D80936C0D90936D0D009123
:1051E000580D1091590D20915A0D30915B0D0819F1
:1051F00019092A093B09DC01CB01800F911FA21F6D
:10520000B31F8093580D9093590DA0935A0DB093EE
:105210005B0DC092C406D092C506E092C606F0921D
:10522000C7068091A60681111AC04091680D509161
:10523000690D28EE33E0429FC001439F900D529FBD
:10524000900D1124A0E0B0E08093A2069093A306F5
:10525000A093A406B093A50681E08093A606809152
:10526000B8069091B906A091BA06B091BB06B701F5
:10527000A601481B590B6A0B7B0B8091A2069091EB
:10528000A306A091A406B091A506481759076A077E
:105290007B0720F1C092B806D092B906E092BA0618
:1052A000F092BB0686E49DE0DF91CF911F910F91B4
:1052B000FF90EF90DF90CF90BF90AF909F908F9036
:1052C0007F906F905F904F900C943C3C159A109299
:1052D000D703179A1092D803A09ABDCDDF91CF9132
:1052E0001F910F91FF90EF90DF90CF90BF90AF9004
:1052F0009F908F907F906F905F904F900895CF9286
:10530000DF92EF92FF92C0900F02D0901002E090D7
:105310001102F09012028091FF03882351F120E0E6
:1053200030E0A901C701B6010E948782882309F1F4
:105330002BED3FE049E450E4C701B6010E94EC8246
:1053400020E030E040E05FE30E94EC82A70196019C
:105350000E94EC8220E030E040E05FE30E94EC82BB
:105360009B01AC0160E070E080E89FE30E94D27B8B
:1053700004C060E070E080E89FE360934F027093A8
:1053800050028093510290935202FF90EF90DF9071
:10539000CF900895CF93DF9380E090E00E94D133C7
:1053A000CFEAD3E0688379838A839B8381E090E0AE
:1053B0000E94D1336C837D838E839F8382E090E053
:1053C0000E94D133688779878A879B87DF91CF9145
:1053D0000895CF92DF92EF92FF92CF93DF93EC018B
:1053E000C0904C04D0904D04E0904E04F0904F04D7
:1053F000A7019601688179818A819B810E948782B9
:1054000087FF04C0C882D982EA82FB82C090500420
:10541000D0905104E0905204F0905304A7019601FB
:105420006C817D818E819F810E94878287FF04C06D
:10543000CC82DD82EE82FF82C0905404D09055046D
:10544000E0905604F0905704A7019601688579858D
:105450008A859B850E94878287FF04C0C886D9867B
:10546000EA86FB86C0902802D0902902E0902A02AA
:10547000F0902B02A7019601688179818A819B8136
:105480000E94817D181624F4C882D982EA82FB82A8
:10549000C0902C02D0902D02E0902E02F0902F02AE
:1054A000A70196016C817D818E819F810E94817D03
:1054B000181624F4CC82DD82EE82FF82C090300286
:1054C000D0903102E0903202F0903302A7019601B1
:1054D000688579858A859B850E94817D181624F4CC
:1054E000C886D986EA86FB86DF91CF91FF90EF9040
:1054F000DF90CF900895CF93DF930E942C40E091EE
:105500000006F0E0EE56F94F8081882381F0E7ED48
:10551000F9E08491EF012196882321F00E94374021
:10552000FE01F7CF8AE0DF91CF910C943740DF91F5
:10553000CF910895CF93DF938FB7F89490918D0614
:1055400090938C068FBFEEECF9E08491EF012196E9
:10555000882321F00E943740FE01F7CF80918E060C
:1055600090918F06A0919006B0919106BC01CD015B
:105570006F5F7F4F8F4F9F4F0E945B418AE00E9479
:105580003740DF91CF91B7CF90E0FC013197E23106
:10559000F10508F04EC08827EE58FF4F8F4F0C944E
:1055A000DD7A809180008F7703C0809180008F7DAD
:1055B00080938000089580918000877FF9CF84B523
:1055C0008F7702C084B58F7D84BD08958091B0002F
:1055D0008F7703C08091B0008F7D8093B0000895D5
:1055E000809190008F7707C0809190008F7D03C0DD
:1055F00080919000877F8093900008958091A00013
:105600008F7707C08091A0008F7D03C08091A0009C
:10561000877F8093A0000895809120018F7707C035
:10562000809120018F7D03C080912001877F80932E
:10563000200108953FB7F89480913607909137077D
:10564000A0913807B091390726B5A89B05C02F3F18
:1056500019F00196A11DB11D3FBFBA2FA92F982F98
:105660008827820F911DA11DB11DBC01CD0142E013
:10567000660F771F881F991F4A95D1F70895CF931A
:10568000DF93282F30E0F901E95EF24F8491F901B0
:10569000EF52F34FD491F901E557F34FC491CC2366
:1056A00089F0811171DFEC2FF0E0EE0FFF1FEF5852
:1056B000F34FA591B491EC91ED2381E090E021F4BA
:1056C00080E002C080E090E0DF91CF9108951F93C9
:1056D000CF93DF93282F30E0F901E95EF24F8491F8
:1056E000F901EF52F34FD491F901E557F34FC4910B
:1056F000CC23C1F0162F811147DFEC2FF0E0EE0F25
:10570000FF1FE95AF34FA591B4918FB7F894111187
:1057100005C09C91ED2FE095E92302C0EC91ED2BA3
:10572000EC938FBFDF91CF911F910895CF93DF93BB
:1057300090E0FC01EF52F34F2491FC01E557F34F49
:105740008491882361F190E0880F991FFC01E35C4C
:10575000F34FC591D491FC01E95AF34FA591B4914F
:10576000611109C09FB7F8948881209582238883AE
:10577000EC912E230BC0623061F49FB7F89438810E
:10578000822F809583238883EC912E2B2C939FBFAF
:1057900006C08FB7F894E8812E2B28838FBFDF9146
:1057A000CF9108951F93CF93DF93182FEB0161E002
:1057B000BDDF209711F460E004C0CF3FD10531F484
:1057C00061E0812FDF91CF911F9181CFE12FF0E038
:1057D000E95EF24FE4914E2F50E0FA013197E23149
:1057E000F10508F09DC08827EC57FF4F8F4F0C94B0
:1057F000DD7A84B5806884BDC7BD97C084B58062FA
:1058000084BDC8BD92C08091800080688093800074
:10581000D0938900C093880088C080918000806206
:1058200080938000D0938B00C0938A007EC08091CB
:105830008000886080938000D0938D00C0938C009E
:1058400074C08091B00080688093B000C093B300B2
:105850006CC08091B00080628093B000C093B400AF
:1058600064C080919000806880939000D0939900EC
:10587000C09398005AC080919000806280939000FD
:10588000D0939B00C0939A0050C080919000886094
:1058900080939000D0939D00C0939C0046C080915F
:1058A000A00080688093A0008091A0008F7B8093EF
:1058B000A000D093A900C093A80037C08091A00099
:1058C00080628093A000D093AB00C093AA002DC04B
:1058D0008091A00088608093A000D093AD00C09319
:1058E000AC0023C080912001806880932001D09378
:1058F0002901C093280119C0809120018062809302
:105900002001D0932B01C0932A010FC08091200168
:10591000886080932001D0932D01C0932C0105C095
:10592000C038D1050CF04CCF46CFDF91CF911F91FD
:1059300008958F929F92AF92BF92CF92DF92EF9293
:10594000FF926B017C0176DE4B015C01C114D10436
:10595000E104F104E9F06EDEDC01CB01881999095C
:10596000AA09BB09883E9340A105B10578F321E05F
:10597000C21AD108E108F10888EE880E83E0981E6B
:10598000A11CB11CC114D104E104F10421F7DECF44
:10599000FF90EF90DF90CF90BF90AF909F908F904F
:1059A00008952FB7F8946091320770913307809172
:1059B0003407909135072FBF08951F920F920FB6AD
:1059C0000F9211242F933F938F939F93AF93BF9385
:1059D0008091320790913307A0913407B091350739
:1059E0003091310723E0230F2D3720F40196A11DBC
:1059F000B11D05C026E8230F0296A11DB11D2093FD
:105A000031078093320790933307A0933407B09304
:105A100035078091360790913707A0913807B091EC
:105A200039070196A11DB11D809336079093370762
:105A3000A0933807B0933907BF91AF919F918F9191
:105A40003F912F910F900FBE0F901F9018954F927E
:105A50005F926F927F928F929F92AF92BF92CF92FE
:105A6000DF92EF92FF92CF93DF93CDB7DEB7289707
:105A70000FB6F894DEBF0FBECDBF2496AEADBFAD5E
:105A800024978D919D910D90BC91A02D89839A832F
:105A9000AB83BC832296EEADFFAD2297C080D18050
:105AA000E280F380AEADBFAD8D909D90AD90BC9087
:105AB0002E8D3F8D48A159A1C501B4010E94EC82F1
:105AC0002B013C012AA53BA54CA55DA5C701B6014C
:105AD0000E94EC829B01AC01C301B2010E94E67AF4
