:100000000C9442170C9473170C9473170C94731779
:100010000C9473170C9473170C9473170C94731738
:100020000C9473170C9473170C9473170C94731728
:100030000C9473170C9473170C9473170C94731718
:100040000C9473170C9403870C9473170C94731708
:100050000C9473170C94CE8D0C949C9A0C9400E322
:100060000C9473170C949B2D0C9473170C947317AA
:100070000C9473170C9473170C9473170C947317D8
:100080000C9473170C9473170C9473170C947317C8
:100090000C9473170C9473170C9473170C94F2DB75
:1000A0000C9473170C9473170C9473170C947317A8
:1000B0000C9473170C9473170C9473170C94731798
:1000C0000C9473170C9473170C9473170C94731788
:1000D0000C9473170C9473170C9473170C94731778
:1000E0000C947317E99AF99A189B1D9B209B259BEA
:1000F000289B2D9B309B359B389B3D9B479B2EE43B
:1001000033E438E442E44CE4C5E456E45EE466E4F7
:1001100070E47AE484E493E49DE4C5E4A7E4B1E404
:10012000BBE4E6E4E9E4D8E4DCE4E2E420E5EDE481
:10013000F1E4F7E4FBE4FFE405E509E50DE520E57E
:1001400013E517E51BE5084AD73B3BCE016E84BC9F
:10015000BFFDC12F3D6C74319ABD56833DDA3D0021
:10016000C77F11BED9E4BB4C3E916BAAAABE00006A
:1001700000803F05A84CCDB2D44EB93836A9020C48
:1001800050B9918688083CA6AAAA2ABE0000008021
:100190003F004739310A4731205A3320452D330A71
:1001A0004732380A4731204632353020452D313626
:1001B0000A4739300A4D3130342053300A4D31343A
:1001C000302053300A4D3130362053300A4D383408
:1001D0002058205920450A4D313137205072696E20
:1001E000742046696E69736865640043616E6E6F62
:1001F0007420656E746572207375626469723A204A
:10020000006175746F25692E67006572726F7220C8
:1002100077726974696E6720746F2066696C650017
:100220004E6F74205344207072696E74696E67005B
:100230005344207072696E74696E672062797465C8
:10024000200044656C6574696F6E206661696C6539
:10025000642C2046696C653A200046696C65206410
:10026000656C657465643A006F70656E20666169DF
:100270006C65642C2046696C653A2000577269747D
:10028000696E6720746F2066696C653A20002E0ADB
:10029000006F70656E206661696C65642C2046692C
:1002A0006C653A20002E0A006F70656E20666169E9
:1002B0006C65642C2046696C653A200046696C6563
:1002C0002073656C6563746564002053697A653AD0
:1002D000200046696C65206F70656E65643A200089
:1002E0006F70656E206661696C65642C2046696C70
:1002F000653A20004E6F77206672657368206669E4
:100300006C653A20004E6F7720646F696E672066D7
:10031000696C653A20002220706F730022207061A2
:1003200072656E743A2200535542524F5554494EED
:10033000452043414C4C207461726765743A220039
:100340004B494C4C45442E2000747279696E6720ED
:10035000746F2063616C6C207375622D67636F64CA
:10036000652066696C6573207769746820746F6FA7
:10037000206D616E79206C6576656C732E204D4121
:1003800058206C6576656C2069733A004D323400F4
:100390004D32332025730053442063617264206F13
:1003A0006B006F70656E526F6F74206661696C656B
:1003B0006400766F6C756D652E696E697420666178
:1003C000696C656400534420696E697420666169D4
:1003D0006C0020204D383531205A005A2D50726F54
:1003E0006265204F666673657420286D6D293A003A
:1003F00020204D3230302044300020204D3230302B
:100400002044002044697361626C65640046696C35
:10041000616D656E742073657474696E67733A00FC
:10042000204C0020430020440020490020204D3370
:1004300030312050005049442073657474696E67F0
:10044000733A0020460020420020204D31343520F0
:10045000533120480020460020420020204D3134F6
:10046000352053302048004D6174657269616C20FD
:1004700068656174757020706172616D6574657214
:10048000733A00205A0020590020204D3230362087
:100490005800486F6D65206F666673657420286D1F
:1004A0006D293A00204500205A00205800204200C3
:1004B00020540020204D32303520530041647661B5
:1004C0006E636564207661726961626C65733A205F
:1004D000533D4D696E2066656564726174652028C0
:1004E0006D6D2F73292C20543D4D696E20747261FF
:1004F00076656C20666565647261746520286D6D33
:100500002F73292C20423D6D696E696D756D2073C6
:1005100065676D656E742074696D6520286D73293B
:100520002C20583D6D6178696D756D205859206A91
:1005300065726B20286D6D2F73292C20205A3D6D1C
:100540006178696D756D205A206A65726B20286D1F
:100550006D2F73292C2020453D6D6178696D756D77
:100560002045206A65726B20286D6D2F732900204D
:10057000540020520020204D32303420500041637E
:1005800063656C65726174696F6E733A20503D707B
:1005900072696E74696E672C20523D726574726167
:1005A000637420616E6420543D74726176656C00E2
:1005B000204500205A0020590020204D32303120A3
:1005C00058004D6178696D756D20416363656C6598
:1005D000726174696F6E20286D6D2F7332293A0035
:1005E000204500205A0020590020204D3230332071
:1005F00058004D6178696D756D206665656472613E
:1006000074657320286D6D2F73293A0020450020F2
:100610005A0020590020204D39322058005374656B
:1006200070732070657220756E69743A004861724B
:1006300064636F6465642044656661756C742053FF
:10064000657474696E6773204C6F61646564002023
:10065000627974657329002073746F726564207306
:10066000657474696E677320726574726965766506
:1006700064202800206279746573290053657474BE
:10068000696E67732053746F726564202800457229
:10069000726F722077726974696E6720746F20457B
:1006A0004550524F4D210020496E76616C6964209F
:1006B000657874727564657220005072696E746535
:1006C000722068616C7465642E206B696C6C2829DB
:1006D0002063616C6C656421004B494C4C45442E91
:1006E000200020746F6F206C6F6E672065787472C5
:1006F0007573696F6E2070726576656E74656400DF
:1007000020636F6C6420657874727573696F6E20F6
:1007100070726576656E746564006F6B0052657308
:10072000656E643A20003A20007A5F6D61783A2065
:10073000007A5F6D696E3A20005A204F66667365D5
:1007400074004F666673657473206170706C6965C0
:1007500064004572723A20546F6F20666172210006
:10076000546F6F206661722066726F6D20726566CD
:100770006572656E636520706F696E740053657491
:1007800074696E672054726176656C20416363659D
:100790006C65726174696F6E3A2000536574746998
:1007A0006E67205265747261637420416363656C87
:1007B00065726174696F6E3A200053657474696E76
:1007C00067205072696E7420416363656C65726165
:1007D00074696F6E3A200053657474696E672050B7
:1007E00072696E7420616E642054726176656C204B
:1007F000416363656C65726174696F6E3A20004D88
:1008000031343520533C696E6465783E206F7574D1
:10081000206F662072616E67652028302D312900B7
:100820007A5F6D696E3A2000795F6D696E3A2000DB
:10083000785F6D696E3A2000205A3A0020593A00DC
:1008400020436F756E7420583A200020453A0020EE
:100850005A3A0020593A00583A004649524D5741F9
:1008600052455F4E414D453A4D61726C696E203183
:100870002E312E302D5243352046726F6D2041723D
:10088000636869766520534F555243455F434F4433
:10089000455F55524C3A687474703A2F2F6D65332A
:1008A000642E636F6D2E61752050524F544F434F2D
:1008B0004C5F56455253494F4E3A312E30204D41F0
:1008C0004348494E455F545950453A4D653344209D
:1008D0004D65322D3136303731322045585452551E
:1008E0004445525F434F554E543A31205555494483
:1008F0003A34303232313243352D364637432D3497
:100900004146302D413832382D4242453134353858
:1009100037363132350A004D653344204D65322D6E
:10092000313630373132204F66662E004D65334404
:10093000204D65322D313630373132207265616499
:10094000792E0048656174696E6720646F6E652E4C
:10095000003F0020573A004D653344204D65322D4D
:100960003136303731322072656164792E00486546
:100970006174696E672E2E2E006F6B004B494C4CD4
:1009800045442E20006F66660044454255473A2094
:10099000004D653344204D65322D313630373132CC
:1009A0002072656164792E0048656174696E672EF6
:1009B0002E2E005374616E64617264204465766902
:1009C0006174696F6E3A20004D65616E3A200020B7
:1009D00020207369676D613A2000206D65616E3A71
:1009E00020002020207A3A2000206F66200020205E
:1009F0007A3A2000793A2000783A200020202061BD
:100A00006E676C653A20005374617274696E67207A
:100A10007261646975733A2000506F736974696F0D
:100A20006E696E67207468652070726F62652E2E25
:100A30002E0A003F4E756D626572206F66206C65F0
:100A4000677320696E206D6F76656D656E74206EBC
:100A50006F7420706C61757369626C652028302D2D
:100A60003135292E0A00590058003F53616D706CD2
:100A7000652073697A65206E6F7420706C61757380
:100A800069626C652028342D3530292E0A004D34DA
:100A900038205A2D50726F626520526570656174FE
:100AA0006162696C69747920746573740A003F56D9
:100AB0006572626F7365204C6576656C206E6F742D
:100AC00020706C61757369626C652028302D342943
:100AD0002E0A002569206D696E2C2025692073651A
:100AE0006300456E642066696C65206C69737400F0
:100AF000426567696E2066696C65206C6973740075
:100B00004E6F206D6F76652E004D653344204D6528
:100B1000322D3136303731322072656164792E00E2
:100B2000526573756D696E67207072696E740057D7
:100B300061697420666F7220757365722E2E2E00A7
:100B4000205A3A200020593A200042656420583A41
:100B50002000205A3A200020593A200042656420A3
:100B6000583A2000486F6D6520582F5920626566FD
:100B70006F7265205A00486F6D6520582F592062AA
:100B800065666F7265205A003F2856296572626F4C
:100B90007365204C6576656C20697320696D706C97
:100BA00061757369626C652028302D34292E0057D9
:100BB00061726E696E673A20486F6D696E67204298
:100BC000756D702044697669736F72203C20310026
:100BD000536C6565702E2E2E0020403A00202F00A9
:100BE00020543A0020706F736974696F6E206F75BE
:100BF00074206F662072616E67652E003F50726FC1
:100C000062652000627573793A207061757365645E
:100C100020666F7220696E70757400627573793A20
:100C20002070617573656420666F722075736572DC
:100C300000627573793A2070726F63657373696EC1
:100C40006700220A00556E6B6E6F776E20636F6DC2
:100C50006D616E643A202200256920686F75727399
:100C6000202569206D696E7574657300446F6E652B
:100C7000207072696E74696E672066696C65004BDE
:100C8000494C4C45442E200053544F505045442E5F
:100C900020005072696E7465722073746F70706595
:100CA000642064756520746F206572726F72732E94
:100CB0002046697820746865206572726F722061C1
:100CC0006E6420757365204D39393920746F207238
:100CD0006573746172742E202854656D706572613D
:100CE000747572652069732072657365742E205364
:100CF000657420697420616674657220726573740E
:100D0000617274696E6729004E6F204C696E6520B0
:100D10004E756D62657220776974682063686563DB
:100D20006B73756D2C204C617374204C696E653A41
:100D300020004E6F20436865636B73756D20776983
:100D40007468206C696E65206E756D6265722C200A
:100D50004C617374204C696E653A2000636865636A
:100D60006B73756D206D69736D617463682C204CB5
:100D7000617374204C696E653A20004C696E652081
:100D80004E756D626572206973206E6F74204C61C0
:100D90007374204C696E65204E756D6265722B31DF
:100DA0002C204C617374204C696E653A20004D31E3
:100DB000313000446F6E6520736176696E6720661E
:100DC000696C652E004D3239002020506C616E6ECA
:100DD000657242756666657242797465733A200081
:100DE0002046726565204D656D6F72793A20004A24
:100DF000756C203132203230313600436F6D7069AE
:100E00006C65643A2000284D6533442C204D6532D2
:100E10002900207C20417574686F723A20003230BE
:100E200031362D30342D30312031323A30300020FF
:100E30004C61737420557064617465643A200020BD
:100E4000312E312E302D524335004D61726C696E5A
:100E50000020536F66747761726520526573657404
:100E600000205761746368646F672052657365740E
:100E7000002042726F776E206F7574205265736523
:100E800074002045787465726E616C2052657365DC
:100E90007400506F776572557000737461727400DE
:100EA0002200656E7175657565696E67202200FFA9
:100EB000FFFF0000A0400000A0400000A040000094
:100EC0005C4300005C43000034430000000000006D
:100ED00000000000000000005C4300005C430000D4
:100EE00034430000000000000000000000006563C3
:100EF000686F3A004572726F723A0020746F6F200B
:100F00006C6F6E6720657874727573696F6E207090
:100F1000726576656E7465640020636F6C6420652D
:100F20007874727573696F6E2070726576656E7411
:100F30006564007C3C3E5E2B3D3F2F5B5D3B2C2A75
:100F4000225C004739310A4731205A3320452D337E
:100F50000A4732380A4731204632353020452D3194
:100F6000360A4739300A4D3130342053300A4D317A
:100F700034302053300A4D3130362053300A4D384A
:100F8000342058205920450A4D313137205072699C
:100F90006E742046696E697368656400656E64737B
:100FA000746F7073206869743A205A00205A3A00AE
:100FB000656E6473746F7073206869743A205900A9
:100FC00020593A00656E6473746F70732068697499
:100FD0003A20580020583A00656E6473746F70733D
:100FE000206869743A200024F4D43050C38E20C2A3
:100FF000A24017828B7011127A910D816CD90AA8C8
:1010000061E108C7586607615143061E4B5D05C183
:1010100045A7041A411104093D9803713931034071
:1010200036DB0265339102D4305402802E1D0263F8
:101030002CEE01752AC501B028A001102781018F6F
:101040002564012B244B01E0223401AC211F018DCA
:10105000200D01801FFC00841EED00971DDF00B8ED
:101060001CD200E61BC600201BBC00641AB200B2F2
:1010700019A8000A19A0006A189900D11791004018
:10108000178B00B516840031167E00B31579003A2F
:10109000157300C7146F0058146A00EE13660088B9
:1010A00013630025135E00C7125B006C1257001516
:1010B000125400C111510070114F0021114B00D684
:1010C0001049008D1047004610440002104200C035
:1010D0000F4000800F3E00420F3C00060F3B00CB4C
:1010E0000E3800930E37005C0E3500270E3400F3E7
:1010F0000D3200C10D3100900D3000600D2E003218
:101100000D2D00050D2C00D90C2B00AE0C290085EF
:101110000C29005C0C2700350C27000E0C2600E87B
:101120000B2400C40B2400A00B23007D0B23005ACA
:101130000B2100390B2100180B2000F80A1F00D9E1
:101140000A1E00BB0A1E009D0A1D00800A1D0063C6
:101150000A1C00470A1B002C0A1B00110A1A00F780
:10116000091A00DD091900C4091900AB0919009218
:101170000917007B091800630917004C091600368F
:10118000091600200916000A091500F5081500E0E7
:10119000081400CC081400B8081400A40814009027
:1011A0000813007D0812006B08130058081200464F
:1011B0000812003408110023081100120811000160
:1011C000081100F0071000E0071000D0071000C061
:1011D000071000B0070F00A107100091070E008351
:1011E000070F0074070F0065070E0057070E004930
:1011F000070E003B070D002E070E0020070D001301
:10120000070D0006070D00F9060C00ED060D00E0C5
:10121000060C00D4060C00C8060C00BC060C00B07E
:10122000060C00A4060B0099060C008D060B00822C
:10123000060B0077060B006C060B0061060A0057D0
:10124000060B004C060A0042060A0038060A002E69
:10125000060A0024060A001A060A001006090007FA
:10126000060A00FD050900F4050900EB050900E286
:10127000050900D9050900D0050900C7050900BE08
:10128000050900B5050800AD050800A50509009C85
:10129000050800940508008C050800840508007CFA
:1012A000050800740508006C050700650508005D69
:1012B000050700560508004E0507004705070040D2
:1012C00005080038050700310507002A0507002337
:1012D0000507001C050600160507000F0507000896
:1012E00005060002050700FB040600F5040700EEF2
:1012F000040600E8040600E2040700DB040600D54B
:10130000040600CF040600C9040600C3040600BD9D
:10131000040600B7040600B1040500AC040600A6EC
:10132000040600A00405009B040600950405009037
:101330000406008A04050085040500800406007A7E
:1013400004050075040500700405006B04050066C3
:10135000040500610405005C040500570405005203
:101360000405004D04050048040500430405003E43
:101370000404003A04050035040500300404002C80
:1013800004050027040400230405001E0404001AB9
:1013900004040016040500110404000D04040009EF
:1013A0000405000404040000040400FC030400F825
:1013B000030400F4030400F0030400EC030400E859
:1013C000030400E4030400E0030400DC030400D889
:1013D000030400D4030400D0030400CC030400C8B9
:1013E000030300C503030024F404D9201BC40C5CD0
:1013F0000E9804C4095F0265077101F405F900FB4A
:1014000004B30048048700C1036900580355000372
:10141000034500BE023A008402310053022A00292B
:1014200002250004022000E4011C00C8011900AFDD
:10143000011700980114008401130071011000616C
:1014400001100051010E0043010D0036010B002B6D
:10145000010B0020010B00150109000C010900031C
:10146000010800FB000800F3000800EB000700E49F
:10147000000600DE000600D8000600D2000600CC00
:10148000000500C7000500C2000500BD000400B94A
:10149000000400B5000400B1000400AD000400A980
:1014A000000400A5000300A20003009F0004009BAD
:1014B00000030098000300950002009300030090D1
:1014C0000003008D0002008B0003008800020086EC
:1014D00000020084000300810002007F0002007D02
:1014E0000002007B00020079000200770001007614
:1014F0000002007400020072000100710002006F1F
:101500000002006D0001006C0002006A0001006929
:101510000002006700010066000100650001006430
:101520000002006200010061000100600001005F34
:101530000002005D0001005C0001005B0001005A38
:101540000001005900010058000100570001005639
:101550000001005500010054000100530000005339
:101560000001005200010051000100500001004F35
:101570000001004E0000004E0001004D0001004C33
:101580000001004B0000004B0001004A000100492F
:10159000000100480000004800010047000100462B
:1015A0000000004600010045000000450001004425
:1015B000000100430000004300010042000000421F
:1015C0000001004100000041000100400001003F17
:1015D0000000003F0001003E0000003E0001003D11
:1015E0000000003D0001003C0000003C0000003C09
:1015F0000001003B0000003B0001003A0000003AFF
:1016000000010039000000390001003800000038F6
:1016100000000038000100370000003700010036EC
:1016200000000036000000360001003500000035E3
:1016300000000035000100340000003400000034D8
:1016400000010033000000330000003300010032CD
:1016500000000032000000320001003100000031C3
:1016600000000031000100300000003000000030B8
:101670000001002F0000002F0000002F0000002FAD
:101680000001002E0000002E0000002E0001002DA1
:101690000000002D0000002D0000002D0001002C96
:1016A0000000002C0000002C0000002C0001002B8A
:1016B0000000002B0000002B0000002B0001002A7E
:1016C0000000002A0000002A0000002A0001002972
:1016D0000000002900000029000000290000002966
:1016E0000001002800000028000000280000002859
:1016F000000000280001002700000027000000274C
:10170000000000270000002700010026000000263E
:101710000000002600000026000000260001002531
:101720000000002500000025000000250000002525
:101730000000002500010024000000240000002417
:10174000000000240000002400010023000000230A
:1017500000000023000000230000002300000023FD
:1017600000000023000100220000002200000022EF
:1017700000000022000000220000002200010021E1
:1017800000000021000000210000002100000021D5
:1017900000000021000000210001002000000020C6
:1017A00000000020000000200000002000000020B9
:1017B00000000020000000200001001F0000001FAA
:1017C0000000001F0000001F0000001F0000001F9D
:1017D0000000001F0001001E0000001E0000001E8F
:1017E0000000001E000000546865726D616C20529C
:1017F000756E6177617900544845524D414C2052D5
:10180000554E415741590048656174696E672066BD
:1018100061696C65640048656174696E6720666122
:10182000696C6564004D494E54454D502074726991
:10183000676765726564004572723A204D494E547F
:10184000454D5000626564002C2073797374656D9A
:101850002073746F707065642120486561746572CF
:101860005F49443A20004D415854454D5020747210
:1018700069676765726564004572723A204D415828
:1018800054454D50004B64200023646566696E65C5
:10189000202044454641554C545F004B69200023AD
:1018A000646566696E65202044454641554C545F29
:1018B000004B70200023646566696E6520204445F6
:1018C0004641554C545F00504944204175746F7433
:1018D000756E652066696E69736865642120507550
:1018E0007420746865206C617374204B702C204BDD
:1018F0006920616E64204B6420636F6E7374616E47
:1019000074732066726F6D2062656C6F7720696EEC
:10191000746F20436F6E66696775726174696F6E6C
:101920002E6800504944204175746F74756E6520AF
:101930006661696C6564212074696D656F757400FA
:10194000504944204175746F74756E6520666169F5
:101950006C6564212054656D706572617475726583
:1019600020746F6F206869676800204B643A20001C
:10197000204B693A2000204B703A200020436C61D4
:10198000737369632050494420002054753A200045
:10199000204B753A2000206D61783A2000206D6957
:1019A0006E3A200020643A200020626961733A2078
:1019B0000070012C0190012701B0012201C0011D1E
:1019C00001F00118011002130130020E016002093A
:1019D0000190020401C002FF000003FA004003F579
:1019E000008003F000D003EB002004E6007004E167
:1019F00000E004DC004005D700C005D2004006CD61
:101A000000D006C8008007C3003008BE00F008B947
:101A100000C009B400B00AAF00B00BAA00D00CA5FA
:101A200000000EA000500F9B00C0109600501291B5
:101A30000000148C00C0158700B0178200B0197D1B
:101A400000D01B7800001E730040206E00902269B9
:101A500000F024640040275F0090295A00E02B55D5
:101A600000102E500020304B0010324600E0334171
:101A70000090353C001037370070383200A0392D07
:101A800000B03A2800A03B2300603C1E00103D1926
:101A900000903D1400103E0F00703E0A00C03E054D
:101AA00000003F0000436172642072656D6F7665CF
:101AB00064004361726420696E73657274656400CA
:101AC0004D343238000920000920007A0020003F00
:101AD000007A00790020003F007900780020003F64
:101AE0000078002D2D2D002D2D3A2D2D0042616204
:101AF000797374657070696E67205A00426162790B
:101B000073746570205A00466C6F7700466C6F776F
:101B10000046616E2073706565640046616E2073D7
:101B200070656564004E6F7A7A6C65004E6F7A7AE4
:101B30006C65005370656564005370656564004DA5
:101B400061696E004D6F76652058004D6F76652097
:101B500059004D6F7665205A00457874727564653A
:101B600072004578747275646572004D6F766520F9
:101B70005A004D6F76652059004D6F7665205800EC
:101B80004D6F76652061786973004D6F7665203002
:101B90002E316D6D004D6F766520316D6D004D6F8E
:101BA00076652031306D6D00507265706172650030
:101BB0004D38300053776974636820706F776572B1
:101BC000206F6E004D383100537769746368207060
:101BD0006F776572206F666600436F6F6C646F7716
:101BE0006E00507265686561742041425300507206
:101BF000656865617420504C41004D38340044697B
:101C00007361626C65207374657070657273004DEA
:101C10006F7665206178697300473239004C6576CC
:101C2000656C206265640053657420686F6D652083
:101C30006F66667365747300473238004175746F60
:101C400020686F6D65004D61696E0053746F726539
:101C5000206D656D6F7279004E6F7A7A6C65004EFB
:101C60006F7A7A6C650046616E20737065656400FA
:101C700046616E2073706565640054656D706572B1
:101C800061747572650053746F7265206D656D6F58
:101C90007279004E6F7A7A6C65004E6F7A7A6C6555
:101CA0000046616E2073706565640046616E207346
:101CB000706565640054656D7065726174757265F8
:101CC00000507265686561742041425320636F6EF5
:101CD00066005072656865617420504C4120636FE6
:101CE0006E66005049442D43005049442D43005036
:101CF00049442D44005049442D44005049442D4945
:101D0000005049442D49005049442D500050494449
:101D10002D50002008204661637400200820466191
:101D20006374002008204D6178002008204D617800
:101D3000002008204D696E002008204D696E00418A
:101D400075746F74656D70004F6666004F6E20008D
:101D500046616E2073706565640046616E20737025
:101D6000656564004E6F7A7A6C65004E6F7A7A6CA6
:101D70006500436F6E74726F6C00457374657073A9
:101D80002F6D6D004573746570732F6D6D005A7300
:101D9000746570732F6D6D005A73746570732F6D59
:101DA0006D005973746570732F6D6D005973746590
:101DB00070732F6D6D005873746570732F6D6D00A7
:101DC0005873746570732F6D6D00412D7472617658
:101DD000656C00412D74726176656C00412D7265F1
:101DE000747261637400412D726574726163740072
:101DF000416D6178206500416D6178206500416D1D
:101E00006178207A00416D6178207A00416D6178B7
:101E1000207900416D6178207900416D61782078EA
:101E200000416D61782078005654726176206D69AA
:101E30006E005654726176206D696E00566D696E43
:101E400000566D696E00566D6178206500566D61B3
:101E500078206500566D6178207A00566D61782093
:101E60007A00566D6178207900566D61782079008E
:101E7000566D6178207800566D617820780056653F
:101E80002D6A65726B0056652D6A65726B00567A15
:101E90002D6A65726B00567A2D6A65726B005678F2
:101EA000792D6A65726B005678792D6A65726B00C0
:101EB000416363656C00416363656C005A204F6643
:101EC00066736574005A204F666673657400436FCD
:101ED0006E74726F6C0046696C2E204469612E002E
:101EE00046696C2E204469612E004520696E206D84
:101EF0006D33004F6666004F6E2000436F6E747244
:101F00006F6C00526573746F7265206661696C73E3
:101F1000616665004C6F6164206D656D6F7279005C
:101F200053746F7265206D656D6F72790046696CD0
:101F3000616D656E74004D6F74696F6E0054656DF0
:101F40007065726174757265004D61696E00022E74
:101F50002E004D61696E004E6F2053442063617204
:101F600064005072696E742066726F6D2053440075
:101F700053746F70207072696E7400526573756D62
:101F800065207072696E740050617573652070729F
:101F9000696E7400436F6E74726F6C00507265707E
:101FA0006172650054756E6500496E666F207363DB
:101FB0007265656E0000060900FE0701920321208C
:101FC000FFFF08FF07FF00000006000001070706EB
:101FD000020080808080800080030202060105A04C
:101FE000A00507070600005050F850F850500507AC
:101FF000070600002078A07028F0200507070600DB
:1020000000C0C8102040981805070706000060901F
:10201000A040A89068020303060104C040800307A3
:10202000070601002040808080402003070706014A
:10203000008040202020408005050506000120A8E2
:1020400070A8200505050600012020F820200203C5
:10205000030602FFC04080050101060003F80202EA
:1020600002060200C0C00505050600010810204058
:102070008005070706000070888888888870030735
:102080000706010040C040404040E0050707060049
:1020900000708808708080F8050707060000F810B7
:1020A00020100808F005070706000010305090F8CF
:1020B0001010050707060000F880F0080888700572
:1020C0000707060000708080F08888700507070603
:1020D0000000F808102020202005070706000070E7
:1020E00088887088887005070706000070888878DF
:1020F000080870020505060200C0C000C0C0020644
:10210000060602FFC0C000C04080040707060000AA
:1021100010204080402010050303060002F800F85C
:1021200004070706010080402010204080050707B3
:102130000600007088081020002005070706000030
:1021400070880868A8A870050707060000708888CE
:10215000F8888888050707060000F08888F08888D6
:10216000F0050707060000708880808088700507EA
:1021700007060000F08888888888F00507070600B1
:1021800000F88080F08080F8050707060000F880DE
:1021900080F0808080050707060000708880B8887E
:1021A0008870050707060000888888F888888801F5
:1021B0000707060200808080808080800507070670
:1021C0000000381010101090600507070600008806
:1021D00090A0C0A09088050707060000808080803E
:1021E0008080F805070706000088D8A888888888B6
:1021F0000507070600008888C8A89888880507078B
:102200000600007088888888887005070706000027
:10221000F08888F0808080050707060000708888B5
:1022200088A89068050707060000F08888F0A0904D
:1022300088050707060000788080700808F0050709
:1022400007060000F82020202020200507070600B0
:1022500000888888888888700507070600008888B5
:1022600088888850200507070600008888888888A5
:10227000A850050707060000888850205088880568
:1022800007070600008888885020202005070706D9
:102290000000F80810204080F8030707060100E05E
:1022A0008080808080E005050506000180402010C8
:1022B00008030707060100E02020202020E0050396
:1022C00003060004205088050101060000F8020200
:1022D00002060205804005050506000070087888A2
:1022E000780507070600008080B0C88888F00505DB
:1022F000050600007080808870050707060000084A
:102300000868988888780505050600007088F880B8
:10231000700507070600003048E0404040400506D1
:10232000060600FF70888878087005070706000019
:102330008080B0C888888801070706020080008076
:10234000808080800308080601FF200020202020D4
:10235000A040040707060000808090A0C0A0900362
:102360000707060100C04040404040E00505050663
:102370000000D0A8A8A8A8050505060000B0C888D8
:10238000888805050506000070888888700506069F
:102390000600FFF08888F080800506060600FF78BA
:1023A0008888780808050505060000B0C880808088
:1023B00005050506000070807008F0040707060098
:1023C000004040E040404030050505060000888898
:1023D000889868050505060000888888502005054E
:1023E000050600008888A8A8500505050600008895
:1023F000502050880506060600FF888888780870F7
:10240000050505060000F8102040F803070706013F
:1024100000204040804040200107070602008080E5
:1024200080808080800307070601008040402040B4
:1024300040800502020600026890000000060000CD
:10244000000000060000000000060000000000067A
:102450000000000000060000000000060000000070
:10246000000600000000000600000000000600005A
:10247000000000060000000000060000000000064A
:102480000000000000060000000000060000000040
:10249000000600000000000600000000000600002A
:1024A000000000060000000000060000000000061A
:1024B0000000000000060000000000060000000010
:1024C00000060000000000060000000000060000FA
:1024D00000000006000000000006000000000006EA
:1024E00000000000000600000000000600000000E0
:1024F00000060000000000060000000000060000CA
:10250000000000060000010707060200800080802E
:102510008080800507070600002070A8A0A8702012
:10252000050707060000304040E04050A8050505BB
:102530000600008870507088050707060000885064
:1025400020F820F820010707060200808080008024
:102550008080050808060000304820505020906018
:10256000030101060107A0050707060000F888B867
:10257000B8B888F805070706000170087888780061
:10258000F80505050600012850A05028050303069C
:102590000001F8080802020206020640800507074B
:1025A000060000F888A88898A8F80501010600062A
:1025B000F804040406000360909060050707060015
:1025C000002020F8202000F8040505060003609094
:1025D0002040F0030505060003E020E020E00202B1
:1025E0000206020640800508080600FF88888888E1
:1025F00098E88080050707060000789898781818F2
:1026000018020202060202C0C00202020602FF40D5
:102610008003050506000340C04040E005070706AB
:102620000001708888887000F8050505060001A083
:10263000502850A00507070600008890A858B80841
:10264000080507070600008890B848982038050854
:1026500008060000C040C048D8380808050707062B
:102660000000200020408088700508080600004017
:1026700020007088F88888050808060000102000EF
:102680007088F888880508080600002050007088C7
:10269000F888880508080600006890007088F888A7
:1026A000880508080600005000708888F8888805AA
:1026B00008080600002050207088F8888805070761
:1026C0000600003860A0B8E0A0B80508080600FFC2
:1026D000708880808870206005080806000040200F
:1026E00000F880F080F8050808060000081000F8DF
:1026F00080F080F8050808060000205000F880F0FF
:1027000080F80507070600005000F880F080F80305
:102710000808060100804000E0404040E00308084F
:10272000060100204000E0404040E00308080601A8
:102730000040A000E0404040E0030707060100A081
:1027400000E0404040E0050707060000704848E808
:1027500048487005080806000068900088C8A898D6
:102760008805080806000040207088888888700561
:1027700008080600001020708888888870050808FE
:102780000600002050007088888870050808060040
:10279000006890007088888870050808060000505E
:1027A000007088888888700505050600018850201B
:1027B00050880508080600FF1070A8A8A8A8704057
:1027C0000508080600004020888888888870050869
:1027D0000806000010208888888888700508080688
:1027E00000002050008888888870050808060000CE
:1027F0005000888888888870050808060000102026
:102800008850202020200509090600FFC04070489C
:1028100048704040E00408080601FF609090A090D6
:1028200090E08005080806000040200070087888C5
:1028300078050808060000102000700878887805E0
:1028400008080600002050007008788878050808FD
:102850000600006890007008788878050707060071
:10286000005000700878887805080806000020509D
:10287000207008788878050606060000D02878A021
:10288000A8500506060600FF7080887020600508C5
:10289000080600004020007088F8807005080806CF
:1028A00000001020007088F88070050808060000FD
:1028B0002050007088F8807005070706000050005F
:1028C0007088F8807003080806010080400040C04E
:1028D0004040E003080806010020400040C040409E
:1028E000E003080806010040A00040C04040E003AB
:1028F0000707060100A00040C04040E005070706AA
:102900000000A040A0107888700508080600006844
:102910009000B0C88888880508080600004020009C
:1029200070888888700508080600001020007088EC
:102930008888700508080600002050007088888884
:102940007005080806000068900070888888700587
:102950000707060000500070888888700505050686
:1029600000012000F800200507070600FF1070A8EE
:10297000A8A8704005080806000040200088888844
:102980009868050808060000102000888888986864
:102990000508080600002050008888889868050708
:1029A0000706000050008888889868050909060015
:1029B000FF102000888888F808700407070601FFC8
:1029C000C04060506040E00508080600FF500088E5
:1029D000888878087000060900FE000000000001E9
:1029E000090008FE000005080806000040F0C8883D
:1029F00088987810050808060000C0F8888888883C
:102A000088F80505050600012030F8302005080883
:102A10000600002070F820202020E00509090600AB
:102A2000FF2070A8A8B8888870200509090600FF53
:102A3000E080C0B0A8283028280509090600FFF862
:102A4000A88888888888A8F8050A0A0600FE205009
:102A500050505088A8A8887003030306000340A0C4
:102A6000400000000000000000000000007FFFE0C8
:102A70000000000000000000000000007000E00006
:102A8000000000000000000000000061F86000008D
:102A90000000000000000000000041F820000000DD
:102AA00000000000000000000040F02000000000D6
:102AB0000000000000000000406020000000000056
:102AC000000000000000005801A07F80000000000E
:102AD0000000004104005C63A0FFC0000000000093
:102AE00000002082005EF7A0FFC000000000000090
:102AF000002082005EF7A0FFC00000000000000080
:102B00004104005C63A07F800000000000000082A0
:102B100008005801A07F80000000000000010410A0
:102B200000406020FFC00000000000000104100011
:102B300040F020FFC00000000000000082080041BB
:102B4000F820FFC00000000000000041040061F810
:102B5000603F00000000000000000000007000E086
:102B60001E0000000000000001FFFF807FFFE00C5E
:102B70000000000000000001FFFF800000000000D6
:102B8000000000000000000000007FFFE0000000E7
:102B90000000000000000000007000E000000000E5
:102BA0000000000000000000630C60000000000056
:102BB00000000000000000470E20000000000000A0
:102BC0000000000000004F0F200000000000000087
:102BD00000000000005F0FA00000000000000000E7
:102BE000000000005E07A07F8000000000000000E1
:102BF000410400406020FFC00000000000000020F1
:102C0000820040F020FFC000000000000000208291
:102C10000040F020FFC00000000000000041040060
:102C20004060207F80000000000000008208005EFD
:102C300007A07F80000000000000010410005F0F6B
:102C4000A0FFC0000000000000010410004F0F2092
:102C5000FFC000000000000000820800470E20FFB7
:102C6000C000000000000000410400630C603F0051
:102C7000000000000000000000007000E01E0000E6
:102C8000000000000001FFFF807FFFE00C0000005B
:102C90000000000001FFFF800000001FFFFFFFFF9A
:102CA000FFFF600000000001FF400000000000FF87
:102CB0008000000000007F83CF00000C303F87FFC2
:102CC00080000C301F867980000C000F8C30C78389
:102CD0008C30E78C30CFC7CC31F38C30DCECEC336C
:102CE000B98C30D86C6C33198C30D06C0C33198C97
:102CF00030D86C0C33198C30DC6C0E3B198C30CF17
:102D00007C079F198C30C77C038F1940000000009E
:102D10000002600000000000061FFFFFFFFFFFF839
:102D200000000A0B02090C0D0E0807030401000045
:102D30000000000000000000000000000000000093
:102D40000000000000000000000000001211100050
:102D50000000000000000000000000000000000073
:102D60000000000000000102102020080810204090
:102D7000102040800201020108040201010204083F
:102D800010204080804020100804020180040201CD
:102D90008040201008040201080402010102040816
:102DA0001020408001020408102040800505050520
:102DB000070508080808020202020A0A08080404B3
:102DC00004040101010101010101030303030303E1
:102DD0000303040707070C0C0C0C0C0C0C0C020270
:102DE000020206060606060606060B0B0B0B0B0B6D
:102DF0000B0B000020002300260029002C002F00D0
:102E00003200000100000301060109010000220058
:102E1000250028002B002E003100340002010000A4
:102E2000050108010B0100002100240027002A00F1
:102E30002D003000330001010000040107010A01E8
:102E40004E414E494E495459494E46CDCCCC3D0A8F
:102E5000D7233C17B7D13877CC2B329595E6241F72
:102E6000B14F0A000020410000C84200401C46202B
:102E7000BCBE4CCA1B0E5AAEC59D74000E6278D5FE
:102E8000C6DB126211241FBECFEFD1E2DEBFCDBF81
:102E900000E00CBF14E0A0E0B2E0E2EDF3EE01E0F0
:102EA0000BBF02C007900D92A83FB107D9F728E1E8
:102EB000A8EFB4E001C01D92A331B207E1F71EE212
:102EC000C2E8DEE200E006C022970109FE010BBF66
:102ED0000E944DEBCC37D10780E00807A9F70E948C
:102EE000B8E50C94D8F10C940000452B31F0539ABE
:102EF0005B9A0E9479E35B9808950C9479E3FC0156
:102F000014821782138212828CE594E0918380836D
:102F100008952CE534E0FC013183208327812223AE
:102F200019F004960C942A7C0895CF92DF92EF92C8
:102F3000FF920F931F93CF93DF93EC018F96DFDF08
:102F4000CE01805B9F4FDBDF7E012FE6E20EF11C9E
:102F500087016E013BE5C31A3EEFD30AC801CFDFFC
:102F6000015E1F4F0C151D05C9F7FE01EA55FE4F06
:102F700089E1818314823596178ACE0187539E4F4B
:102F8000BEDFFE01E658FD4F1082118212821382CD
:102F9000349610821182128213821A821B82188246
:102FA0001982F8011082FE01E851FE4F108286E37B
:102FB00091E0F7019C01119221503040E1F7FE01B0
:102FC000EA57FD4F81E080831EA61DA60E944AE3BA
:102FD000CE57DD4F68577C4E8F4F9F4F6883798364
:102FE0008A839B83DF91CF911F910F91FF90EF9088
:102FF000DF90CF900895FC0120E03EE2DB014C9190
:10300000403241F0283011F430833196DB014C918D
:10301000408331962F5F6F5F7F4F2B3079F710829F
:1030200008952F923F924F925F926F927F928F926C
:103030009F92AF92BF92CF92DF92EF92FF920F9347
:103040001F93CF93DF93CDB7DEB7C657D1090FB625
:10305000F894DEBF0FBECDBF8C016B015A01290170
:103060002DB73EB7E3963FAF2EAFE397AD961FAEB9
:10307000AD9734E0A30EB11C4296E5969FAF8EAF9C
:10308000E597180199E7291A9DEF390AF801E757E2
:10309000FD4FAF96FFAFEEAFAF973801F5E06F0E83
:1030A000711C7E012FE5E20EF11C80E490E08C0F94
:1030B0009D1F0496E7969FAF8EAFE797E5964EADBE
:1030C0005FADE597BE016F5F7F4FC5010E94907AAB
:1030D00018160CF041C12C85322F3871303109F0AF
:1030E000BCC0F101808191810197029708F4B5C0BD
:1030F0002DB73EB7E1963FAF2EAFE197BE016F5FB0
:103100007F4FC70178DF81E0F601908191119DC06A
:10311000E1E0F0E0D7010D900020E9F7EE19FF099A
:10312000EA0FFB1F31962DB73EB72E1B3F0B0FB694
:10313000F8943EBF0FBE2DBFEDB7FEB731964F01DD
:10314000882319F061E173E001C0B601C4010E9457
:10315000D9EEB701C4010E94BAEE61E173E0C40187
:103160000E94BAEECE01805C9F4FC9DE21E0A7012C
:10317000B501E7968EAD9FADE7970E94217E811144
:1031800037C0F10180819181892B91F5EEEEFEE04F
:103190008491882341F09091C00095FFFCCF8093EB
:1031A000C6003196F5CFE3E1F3E08191882339F051
:1031B0009091C00095FFFCCF8093C600F6CF809120
:1031C000C00085FFFCCF8AE08093C600F7018191A3
:1031D000882339F09091C00095FFFCCF8093C60002
:1031E000F6CF8091C00085FFFCCF8AE08093C600B7
:1031F0008BE1FE01EC5BFF4FDE01959601900D9295
:103200008A95E1F724968EAD9FAD24979CA38BA35E
:103210008CE594E09AA389A320E030E0AE014F5DF5
:103220005F4FB401C801FDDECE01819672DECE0192
:10323000805C9F4F6EDEE1962EAD3FADE1970FB6FD
:10324000F8943EBF0FBE2DBF39CF80E00190002023
:10325000E9F73197EC19FD095DCF8981882309F4DD
:103260007BC0853E09F42ACF8E3209F427CFF801BE
:1032700082898E3209F422CF23FD20CF81E03031C4
:1032800009F080E0F8018483811108C089858734C2
:1032900009F014CF8A858E3709F410CFF1018081AF
:1032A00091818130910569F08230910581F1892BFE
:1032B00009F004CFBE016F5F7F4FC3019CDEF601B2
:1032C00010C0AF96EEADFFADAF97808191810196B2
:1032D00091838083F3CE9091C00095FFFCCF8093C3
:1032E000C60081918111F7CFF3018191882339F0D4
:1032F0009091C00095FFFCCF8093C600F6CF8091DF
:10330000C00085FFFCCF8AE08093C600D7CEBE0107
:103310006F5F7F4FC3016FDE4114510439F0B30179
:10332000C2010E94A7EE892B79F416C0AD96FFADBD
:10333000AD972F2F30E0AF96EEADFFADAF97808108
:1033400091812817390741F0AD96FFADAD97FF5F2A
:10335000AD96FFAFAD97B2CEE3962EAD3FADE397FE
:103360000FB6F8943EBF0FBE2DBFCA58DF4F0FB641
:10337000F894DEBF0FBECDBFDF91CF911F910F91AB
:10338000FF90EF90DF90CF90BF90AF909F908F9085
:103390007F906F905F904F903F902F900895EF92A5
:1033A000FF920F931F93CF93DF93CDB7DEB76F9745
:1033B0000FB6F894DEBF0FBECDBF8C01FC01E957FC
:1033C000FD4F118210827C0183E3E80EF11C40E086
:1033D00050E0BA01C7010E94477B8BE1F701DE0193
:1033E000159601900D928A95E1F7F80181A992A9AD
:1033F0009C838B838CE594E09A83898320E030E082
:10340000AE014F5F5F4F63E873E0C8010ADECE0193
:1034100001967FDD6F960FB6F894DEBF0FBECDBF6D
:10342000DF91CF911F910F91FF90EF900895EF9250
:10343000FF920F931F93CF93DF93EC011B828EA912
:10344000882321F0CE01C3960E942A7C7E018AE562
:10345000E81A8EEFF80A45E360E0C7010E94A776FC
:1034600081111FC0EEEEFEE08491882341F090911F
:10347000C00095FFFCCF8093C6003196F5CFE5ECF8
:10348000F3E08491882341F09091C00095FFFCCF38
:103490008093C6003196F5CF8091C00085FFFCCFA8
:1034A00076C08E0105551E4F41E0B701C8010E944C
:1034B0002B84811126C040E0B701C8010E942B84F3
:1034C00081111FC0E4EFFEE08491882341F09091C8
:1034D000C00095FFFCCF8093C6003196F5CFE2EB9C
:1034E000F3E08491882341F09091C00095FFFCCFD8
:1034F0008093C6003196F5CF8091C00085FFFCCF48
:1035000046C0B801CE01C3960E94347981111FC014
:10351000E4EFFEE08491882341F09091C00095FF94
:10352000FCCF8093C6003196F5CFE2EAF3E08491B8
:10353000882341F09091C00095FFFCCF8093C60096
:103540003196F5CF8091C00085FFFCCF20C081E08F
:103550008B83EEEEFEE08491882341F09091C000D1
:1035600095FFFCCF8093C6003196F5CFE7E9F3E0F5
:103570008491882341F09091C00095FFFCCF809307
:10358000C6003196F5CF8091C00085FFFCCF8AE060
:103590008093C600CE01805B9F4F2BE1FE01F39626
:1035A000DC01149601900D922A95E1F729A93AA918
:1035B000FC01338322833297AF96D183C083DF919E
:1035C000CF911F910F91FF90EF900895FC0112820F
:1035D00013820895CF92DF92EF92FF920F931F9381
:1035E000CF93DF93CDB7DEB7CDB6DEB6FB0101904A
:1035F0000020E9F7E61BF70B34968DB79EB78E1BBC
:103600009F0B0FB6F8949EBF0FBE8DBF0DB71EB7B0
:103610000F5F1F4F7F936F9380E993E09F938F938A
:103620001F930F930E94FDEE780194E0E90EF11CC8
:103630000F900F900F900F900F900F90F7018081D7
:10364000882349F0992787FD90950E9448EEF7015D
:1036500081937F01F3CF60E0C8010E9411318CE8B3
:1036600093E00E94B6310FB6F894DEBE0FBECDBE19
:10367000DF91CF911F910F91FF90EF90DF90CF904E
:103680000895FC012381222311F021E02283089573
:10369000FC012281211112820895AF92BF92CF9234
:1036A000DF92EF92FF920F931F93CF93DF931F92BE
:1036B000CDB7DEB78C018FE2FB0181935F01D12C86
:1036C00021E07801FBE5EF1AFEEFFF0A8FE1C82E3B
:1036D000F7018081D816C8F4B501C801CD9C800DD2
:1036E000911D11248D589F4F29830E94DB78C501BD
:1036F00029815C010196F5013081332321F02D38B9
:1037000010F42F5FF6CFD394E3CF27FD11C0B5019E
:10371000C80183539E4F0F90DF91CF911F910F915E
:10372000FF90EF90DF90CF90BF90AF900C94DB783C
:10373000F50110820F90DF91CF911F910F91FF90B3
:10374000EF90DF90CF90BF90AF9008953F924F924F
:103750005F926F927F928F929F92AF92BF92CF9221
:10376000DF92EF92FF920F931F93CF93DF93CDB72A
:10377000DEB7AC970FB6F894DEBF0FBECDBF7C01AD
:103780005B01FC018381882309F4EDC0C7018353E9
:103790009E4F0E942A7CF7011282CE0101966C0195
:1037A000AEDB27019EE4490E511CC7018F96F20142
:1037B00091838083F50180818F3209F077C06FE2B9
:1037C00070E0C5010E94C5EE8C010F5F1F4F9AE0AB
:1037D000392E0115110509F46FC06FE270E0C801C0
:1037E0000E94C5EE4C01009709F467C0081719073D
:1037F00008F063C03C01601A710AA301B801CE0150
:1038000080960E94EEEEE0E2F0E0EC0FFD1FE60D88
:10381000F71D1082FE01B0968191882339F09091B6
:10382000C00095FFFCCF8093C600F6CF8091C0000A
:1038300085FFFCCF3092C600F20160817181611575
:10384000710519F06C5F7F4F02C060E070E021E00D
:10385000AE01405E5F4FCE0105960E94217E811130
:103860001EC0E8E6F2E08491882341F09091C00008
:1038700095FFFCCF8093C6003196F5CFFE01B09640
:103880008191882339F09091C00095FFFCCF8093FF
:10389000C600F6CF8091C00085FFFCCF5FC0F2016B
:1038A000D182C08284010F5F1F4F93CFC701805B1D
:1038B0009F4FF201918380838501F2018081918184
:1038C000009711F0049602C080E090E0B8010E94D9
:1038D000F77E811103C0E2E4F2E02EC0EAE5F2E0F7
:1038E0008491882341F09091C00095FFFCCF809394
:1038F000C6003196F5CFF8018191882339F0909177
:10390000C00095FFFCCF8093C600F6CF8091C00029
:1039100085FFFCCF8AE08093C600F701E258FD4F97
:1039200010821182128213821CC09091C00095FFF8
:10393000FCCF8093C600319684918111F6CFF801B7
:103940008191882339F09091C00095FFFCCF80933E
:10395000C600F6CF8091C00085FFFCCF8EE2809339
:10396000C600C601D6DAAC960FB6F894DEBF0FBE1D
:10397000CDBFDF91CF911F910F91FF90EF90DF901E
:10398000CF90BF90AF909F908F907F906F905F90FF
:103990004F903F900895CF93DF93EC018B8181117D
:1039A00003C0E0E2F2E039C0E0E3F2E08491882372
:1039B00041F09091C00095FFFCCF8093C6003196F6
:1039C000F5CFFE01E258FD4F408151816281738144
:1039D0002AE030E088EF94E00E94032F8091C0003D
:1039E00085FFFCCF8FE28093C600C658DD4F48812B
:1039F00059816A817B812AE030E088EF94E00E945F
:103A0000032F8091C00085FFFCCF0EC09091C000B5
:103A100095FFFCCF8093C600319684918111F6CF3B
:103A20008091C00085FFFCCF8AE08093C600DF91C3
:103A3000CF910895AF92BF92CF92DF92EF92FF9213
:103A40000F931F93CF93DF935C01EB01FB01019078
:103A50000020E9F78F0101501109061B170B6C01BB
:103A6000F3E3CF1AFEEFDF0AF60110826EE470E096
:103A7000CE010E94C5EE7C01009729F4F801319730
:103A8000EC0FFD1F0DC060E270E00E94C5EEEC017E
:103A900021966AE270E0C7010E94C5EEFC013197F1
:103AA0008DE081838AE082831382BE01C501875342
:103AB0009E4F0E94D480F6018081882309F1E4EFB3
:103AC000FEE08491882341F09091C00095FFFCCFE7
:103AD0008093C6003196F5CFEAE0F2E08491882326
:103AE00041F09091C00095FFFCCF8093C6003196C5
:103AF000F5CF8091C00085FFFCCF8AE08093C6009F
:103B0000DF91CF911F910F91FF90EF90DF90CF90B9
:103B1000BF90AF9008956F927F928F929F92AF92D5
:103B2000BF92CF92DF92EF92FF920F931F93CF93AA
:103B3000DF93CDB7DEB7AA970FB6F894DEBF0FBEFE
:103B4000CDBF8C018A579D4F5C01611112C0FC01F1
:103B50008081882309F496C03497C080D180E280A8
:103B6000F3800E944AE3C616D706E806F90608F471
:103B700089C0F5011082F8018381811107C0C80155
:103B800056DCF8018381882309F47CC0F80186A5FE
:103B90008F9385A58F9381E092E09F938F937E0111
:103BA000F1E2EF0EF11CFF92EF920E94FDEE0F90FA
:103BB0000F900F900F900F900F90B12CF701019084
:103BC0000020E9F73197EE19FF09BE1684F467016A
:103BD000CB0CD11CB7FCDA94F6018081992787FDC4
:103BE00090950E9448EEF6018083B394E7CF580188
:103BF000F3E3AF0EB11C40E050E0BA01C5010E94F2
:103C0000477B612CCE0101966C0140E050E0B6018B
:103C1000C5010E94907A18164CF5712CF60101909E
:103C20000020E9F73197EC19FD097E1674F446017E
:103C3000870C911C77FC9A94F401808190E00E949B
:103C400048EEF40180837394E9CF8A858E37E9F2D8
:103C500045E050E0B701C6010E94E0EE892BA9F6CD
:103C6000B701C801B7DC66246394CFCF611004C0EC
:103C70008FEF9FEFF80104C0F80185A596A5019686
:103C800096A785A7AA960FB6F894DEBF0FBECDBF44
:103C9000DF91CF911F910F91FF90EF90DF90CF9028
:103CA000BF90AF909F908F907F906F9008950F93EB
:103CB0001F93CF93DF93EC018C0103531E4FC80178
:103CC0000E94E07BC8010E942A7C19821882DF9141
:103CD000CF911F910F910895CF92DF92EF92FF92B3
:103CE0000F931F93CF93DF93CDB7DEB76F970FB6C8
:103CF000F894DEBF0FBECDBF8C016A017C018EE45B
:103D0000E80EF11CC801805B9F4FF701918380830F
:103D1000E75CFD4F22E030E03183208332967183EF
:103D2000608340E050E0BA0104960E94477BF701AF
:103D3000808191812BE1FC013496DE011596019082
:103D40000D922A95E1F7FC01828193819C838B83FC
:103D50008CE594E09A8389839601AE014F5F5F4FB3
:103D600063E873E0C8015DD9CE010196D2D86F96A1
:103D70000FB6F894DEBF0FBECDBFDF91CF911F917C
:103D80000F91FF90EF90DF90CF9008952F923F9288
:103D90004F925F926F927F928F929F92AF92BF925B
:103DA000CF92DF92EF92FF920F931F93CF93DF9307
:103DB000CDB7DEB7AC970FB6F894DEBF0FBECDBF60
:103DC0008C016B01342EFC018381882309F4CDC260
:103DD000E053FE4F8081882309F4FAC0211103C00B
:103DE000EEEEFEE0CDC07801F8E1EF1AFEEFFF0A3B
:103DF000F7018081811103C0EEEEFEE035C0E4EFF3
:103E0000FEE08491882341F09091C00095FFFCCFA3
:103E10008093C6003196F5CFE9E4F3E084918823DE
:103E200041F09091C00095FFFCCF8093C600319681
:103E3000F5CF4AE050E061E070E088EF94E00E9446
:103E4000D72E8091C00085FFFCCF8AE08093C6000A
:103E500080E493E00E94815388C29091C00095FF56
:103E6000FCCF8093C600319684918111F6CFE7E2B2
:103E7000F3E08491882341F09091C00095FFFCCF3E
:103E80008093C6003196F5CFF6018191882339F0F1
:103E90009091C00095FFFCCF8093C600F6CFECE177
:103EA000F3E08491882341F09091C00095FFFCCF0E
:103EB0008093C6003196F5CFF70180813DE8B32E9F
:103EC000B801B89E600D711D112463517E4FC80169
:103ED000E4DBF7018081F801B89EE00DF11D1124AB
:103EE000E351FE4F8191882339F09091C00095FFF6
:103EF000FCCF8093C600F6CFE6E1F3E084918823FF
:103F000041F09091C00095FFFCCF8093C6003196A0
:103F1000F5CF5801F2E8AF1AFDEFBF0AF501408175
:103F20005181628173812AE030E088EF94E00E9441
:103F3000032F8091C00085FFFCCF8AE08093C600EC
:103F4000F7012081F80184E0289FE00DF11D112484
:103F5000AF0147515E4FF50180819181A281B3810C
:103F6000FA0180839183A283B3832F5FF7012083BB
:103F700029C09091C00095FFFCCF8093C600319678
:103F800084918111F6CFE5E0F3E08491882341F03C
:103F90009091C00095FFFCCF8093C6003196F5CF7D
:103FA000F6018191882339F09091C00095FFFCCFF4
:103FB0008093C600F6CF8091C00085FFFCCF8AE0D9
:103FC0008093C600C80183539E4F0E942A7C30C054
:103FD000F801E851FE4F1082EEEEFEE08491882356
:103FE00041F09091C00095FFFCCF8093C6003196C0
:103FF000F5CFE4EFF2E08491882341F09091C00086
:1040000095FFFCCF8093C6003196F5CFF6018191E4
:10401000882339F09091C00095FFFCCF8093C600B3
:10402000F6CF8091C00085FFFCCF8AE08093C60068
:10403000F8011282CE0101965C010E947F172801CF
:104040009EE4490E511CC8018F96F2019183808332
:10405000F60180818F3209F077C07601FFEFEF1A09
:10406000FF0A2AE0222EE114F10409F473C06FE282
:1040700070E0C7010E94C5EE4C01009709F46BC0C7
:10408000E816F90608F067C03C016E187F08A30126
:10409000B701CE0180960E94EEEEE0E2F0E0EC0F78
:1040A000FD1FE60DF71D1082FE01B0968191882359
:1040B00039F09091C00095FFFCCF8093C600F6CFF9
:1040C0008091C00085FFFCCF2092C600F201608184
:1040D00071816115710519F06C5F7F4F02C060E05E
:1040E00070E021E0AE01405E5F4FCE0105960E9478
:1040F000217E811121C0E0EEF2E08491882341F01D
:104100009091C00095FFFCCF8093C6003196F5CF0B
:10411000FE01B0968191882339F09091C00095FFFF
:10412000FCCF8093C600F6CF8091C00085FFFCCF06
:104130008EE28093C60016C1F201B182A0827401A2
:10414000FFEFEF1AFF0A8FCFC801805B9F4FF2018C
:10415000918380837601C80183539E4F4C01F20105
:1041600060817181332009F4A3C06115710519F0D4
:104170006C5F7F4F02C060E070E021E0A701C401E6
:104180000E94217E811103C0E8EAF2E075C0980127
:1041900026583D4FF40181899289A389B489F90198
:1041A00080839183A283B383E2EDF2E0849188233C
:1041B00041F09091C00095FFFCCF8093C6003196EE
:1041C000F5CFF7018191882339F09091C00095FFD8
:1041D000FCCF8093C600F6CFEAECF2E0849188230E
:1041E00041F09091C00095FFFCCF8093C6003196BE
:1041F000F5CFF90140815181628173812AE030E07D
:1042000088EF94E00E94032F8091C00085FFFCCFCF
:104210008AE08093C600F801E258FD4F10821182B7
:1042200012821382ECEBF2E08491882341F09091AA
:10423000C00095FFFCCF8093C6003196F5CF8091EA
:10424000C00085FFFCCF8AE08093C600A70160E034
:1042500070E0C80141DDF8018289882319F0C801A6
:10426000429601C0C70160E07BC09091C00095FFFD
:10427000FCCF8093C600319684918111F6CFF7016F
:104280008191882339F09091C00095FFFCCF8093F5
:10429000C600F6CFE5EAF2E08491882309F462C013
:1042A0009091C00095FFFCCF8093C6003196F4CF6B
:1042B0006115710519F06C5F7F4F02C060E070E01E
:1042C00026E5A701C4010E94217E811125C0E1E9F4
:1042D000F2E08491882341F09091C00095FFFCCFDB
:1042E0008093C6003196F5CFF7018191882339F08C
:1042F0009091C00095FFFCCF8093C600F6CFEEE80A
:10430000F2E08491882371F19091C00095FFFCCF79
:104310008093C6003196F5CF81E0F8018083ECE709
:10432000F2E08491882341F09091C00095FFFCCF8A
:104330008093C6003196F5CFF6018191882339F03C
:104340009091C00095FFFCCF8093C600F6CF80917E
:10435000C00085FFFCCF8AE08093C60060E0C70103
:104360000E9495AEC5010E948917AC960FB6F894CD
:10437000DEBF0FBECDBFDF91CF911F910F91FF9098
:10438000EF90DF90CF90BF90AF909F908F907F90F5
:104390006F905F904F903F902F90089521E0FC0127
:1043A000218320E040E0F2CCCF92DF92EF92FF92A7
:1043B0000F931F93CF93DF93CDB7DEB76F970FB6F1
:1043C000F894DEBF0FBECDBF8C016C012EE4C20E8F
:1043D000D11C805B9F4FF60191838083E75CFD4F8A
:1043E00021E030E0318320837801F7E7EF1AFDEF19
:1043F000FF0AF7011182108240E050E0BA010496F2
:104400000E94477BF601808191812BE1FC0134966B
:10441000DE01159601900D922A95E1F7FC0182814B
:1044200093819C838B838CE594E09A83898320E03D
:1044300030E0AE014F5F5F4F63E873E0C8010E9458
:104440001118CE0101960E948917F7018081918190
:104450006F960FB6F894DEBF0FBECDBFDF91CF9140
:104460001F910F91FF90EF90DF90CF900895AF9242
:10447000BF92CF92DF92EF92FF920F931F93CF9351
:10448000DF93CDB7DEB76F970FB6F894DEBF0FBEE0
:10449000CDBF8C015B01CE0101960E947F17F80110
:1044A000E95AFF4F80817801811104C02FE2E20EAA
:1044B000F11C03C030E5E30EF11C670144E0C40EBB
:1044C000D11C21E0A501B601CE0105960E94217EF6
:1044D00081112DC0EEEEFEE08491882341F0909191
:1044E000C00095FFFCCF8093C6003196F5CFEBEE70
:1044F000F1E08491882341F09091C00095FFFCCFBA
:104500008093C6003196F5CFF5018191882339F06B
:104510009091C00095FFFCCF8093C600F6CF8091AC
:10452000C00085FFFCCF8AE08093C60030C0F80150
:10453000EB55FE4F80818A30D0F491E0980F908344
:10454000F8012FE1829FE00DF11D1124CF01815967
:104550009F4F2BE1F601DC01149601900D922A95F4
:10456000E1F7F70122813381FC0133832283005B71
:104570001F4F8BE1FE013596D801149601900D92E4
:104580008A95E1F78B819C81F80193838283CE0128
:1045900001960E9489176F960FB6F894DEBF0FBE82
:1045A000CDBFDF91CF911F910F91FF90EF90DF90E2
:1045B000CF90BF90AF900895CF93DF93FC01EB5560
:1045C000FE4F20812223D1F021502083EC013FE1D6
:1045D000239FC00DD11D1124C159DF4F805B9F4F18
:1045E0002BE1FE013496DC01149601900D922A9580
:1045F000E1F72A813B81FC0133832283DF91CF9154
:104600000895EF92FF920F931F93CF93DF93EC01E6
:104610000E94EE8E8E0108511E4FF80180819E018E
:1046200023533E4F79018823A1F1C9010E942A7CBE
:10463000F801808181508083BE01FDE88F9F600D6D
:10464000711D112463517E4F21E041E0CE019EDBBC
:10465000F8018081FE0124E0829FE00DF11D11240C
:10466000E751FE4F4081518162817381FE01E25822
:10467000FD4F4083518362837383C7010E94477B50
:10468000CE01DF91CF911F910F91FF90EF900C948D
:10469000411BC9010E942A7C1A8282E991E00E9492
:1046A000B63180916C10882349F110926C10009102
:1046B000010610E0E801CC0FDD1FCC55DB4E688110
:1046C0007981882777FD8095982F0E94B5E7209102
:1046D0003D0230913E0240913F02509140020E94C3
:1046E00016E918165CF419821882C801DF91CF917F
:1046F0001F910F91FF90EF900C948E93DF91CF91CB
:104700001F910F91FF90EF900895AF92BF92DF92AB
:10471000EF92FF920F931F93CF93DF931F92CDB72A
:10472000DEB78C015B01460F8AE0D82E4A1509F4EA
:104730003BC07501F50161915F01F80180819181B4
:1047400049830E9421F1F801808191810E9419F131
:10475000F70190814981891701F1EEEEFEE0849125
:10476000882341F09091C00095FFFCCF8093C60054
:104770003196F5CFEEE8F6E08491882341F09091F0
:10478000C00095FFFCCF8093C6003196F5CF809195
:10479000C00085FFFCCFD092C600F80180819181D6
:1047A000019691838083C2CF0F90DF91CF911F91AB
:1047B0000F91FF90EF90DF90BF90AF900895EF9230
:1047C000FF920F931F93CF93DF931F92CDB7DEB766
:1047D0008C017B01460FF8018081918149830E9401
:1047E00019F1F70181937F01F80180819181019690
:1047F0009183808349814E11EECF0F90DF91CF914D
:104800001F910F91FF90EF900895CF92DF92EF925A
:10481000FF920F931F93CF93DF93CDB7DEB7A1978E
:104820000FB6F894DEBF0FBECDBF1D8A1E8A1F8A49
:10483000188E80E390E3A0E3B0E0898B9A8BAB8B7A
:10484000BC8B84E690E09E8F8D8F44E0BE016F5E4E
:104850007F4FCE014D9659DF40E16DEA70E1CE0108
:104860004D9653DF40E16DEB70E1CE014D964DDF8B
:1048700040E16DE970E1CE014D9647DF44E065E926
:1048800070E1CE014D9641DF44E061E970E1CE0177
:104890004D963BDF44E06DE870E1CE014D9635DF8B
:1048A00044E069E970E1CE014D962FDF44E06DE709
:1048B00070E1CE014D9629DF44E06DEC70E1CE0150
:1048C0004D9623DF44E069E870E1CE014D961DDF8F
:1048D00044E065E870E1CE014D9617DF44E061E801
:1048E00070E1CE014D9611DF4CE060E176E0CE0143
:1048F0004D960BDF83E089A388A31F8E1D8A1E8A35
:104900001F8A188E41E0BE01615E7F4FCE014D9639
:10491000FCDE44E0BE016B5E7F4FCE014D96F5DEBE
:1049200041E0BE016F5D7F4FCE014D96EEDE41E06E
:10493000BE01605E7F4FCE014D96E7DE10E099A18B
:1049400088A1212F30E0989FC001112444E028174E
:10495000390744F4BE016B5E7F4FCE014D96D5DE24
:104960001F5FEDCF64EE75E0CE014D96CEDE1D8A61
:104970001E8A1F8A188E1AE0115041F044E0BE01D1
:104980006B5E7F4FCE014D96C0DEF6CF42E06DE309
:1049900077E1CE014D96B9DE42E06BE377E1CE01DF
:1049A0004D96B3DE42E069E377E1CE014D96ADDE90
:1049B00042E067E377E1CE014D96A7DE42E065E392
:1049C00077E1CE014D96A1DE42E063E377E1CE01CF
:1049D0004D969BDEC12C90E8D92E9BE3E92E95E401
:1049E000F92E111119C044E062E872E0CE014D9633
:1049F0008CDE44E06EE772E0CE014D9686DE44E048
:104A00006AE772E0CE014D9680DE44E066E772E030
:104A1000CE014D967ADE1AC0CD8ADE8AEF8AF88EF4
:104A200044E0BE016B5E7F4FCE014D966EDE1D8A67
:104A30001E8A1F8A188E04E0015041F044E0BE0136
:104A40006B5E7F4FCE014D9660DEF6CF1F5F143058
:104A500041F642E062E172E0CE014D9656DE80E022
:104A600090E8ABE3B5E48D879E87AF87B88B8987E5
:104A70009A87AB87BC878D839E83AF83B88744E0DA
:104A8000BE01635F7F4FCE014D963FDE44E0BE0125
:104A9000675F7F4FCE014D9638DE44E0BE016B5F0D
:104AA0007F4FCE014D9631DE80E290E09C8F8B8F60
:104AB00042E0BE01655E7F4FCE014D9626DE80E06E
:104AC00090E0A0E8BFE38D8B9E8BAF8BB88F44E066
:104AD000BE016B5E7F4FCE014D9617DE41E06CE16B
:104AE00076E0CE014D9611DE10E011110CC08091E0
:104AF0002C0290912D02A0912E02B0912F028D8B4D
:104B00009E8BAF8BB88F44E0BE016B5E7F4FCE01B2
:104B10004D96FBDD1F5F143041F786E592E3A3E37A
:104B2000B0E089839A83AB83BC8384E690E09A8F5C
:104B3000898F44E0BE016F5F7F4FCE014996E5DD6E
:104B4000EEEEFEE08491882341F09091C00095FF45
:104B5000FCCF8093C6003196F5CF4D8D5E8D6627D4
:104B600057FD6095762F8CE796E00E94C030E4E711
:104B7000F6E08491882341F09091C00095FFFCCF2E
:104B80008093C6003196F5CF8091C00085FFFCCFA1
:104B90008AE08093C600A1960FB6F894DEBF0FBEE0
:104BA000CDBFDF91CF911F910F91FF90EF90DF90DC
:104BB000CF900895AF92BF92DF92EF92FF920F9342
:104BC0001F93CF93DF93CDB7DEB7E0970FB6F8947E
:104BD000DEBF0FBECDBF80E1EBEDF2E0DE019196CE
:104BE00001900D928A95E1F780E1EBEEF2E0DE01B3
:104BF000519601900D928A95E1F780E1EBEFF2E09A
:104C0000DE01119601900D928A95E1F77E0181E215
:104C1000E80EF11C0DEA10E1BE016F5E7F4F4DEB17
:104C200050E19E012F5F3F4FEDE9AE2EE0E1BE2E39
:104C3000D12CF70181919191A191B1917F01F8015E
:104C400081939193A193B1938F01FB0181919191F4
:104C5000A191B191BF01FA0181939193A193B19375
:104C6000AF01F90181919191A191B1919F01F5015C
:104C700081939193A193B1935F01D394F4E0DF12F8
:104C8000D8CF0E946E7580E090E0AAE7B4E48093EC
:104C9000951090939610A0939710B093981080E081
:104CA00090E8ABE3B5E48093911090939210A093B9
:104CB0009310B093941080938D1090938E10A093C6
:104CC0008F10B09390101092991010929A10109229
:104CD0009B1010929C1080E29EE4A0E0B0E08093D4
:104CE000CD109093CE10A093CF10B093D01010920F
:104CF0007D1010927E1010927F101092801080E034
:104D000090E0A0E2B1E48093891090938A10A09380
:104D10008B10B0938C108DEC9CECACECBEE38093CC
:104D2000851090938610A0938710B093881080E030
:104D300090E0A0EAB0E48093811090938210A09359
:104D40008310B093841010921806109219061092D6
:104D50001A0610921B061092140610921506109255
:104D60001606109217061092100610921106109255
:104D70001206109213061092E4051092E5051092A7
:104D8000E6051092E7058DEC90E090933E17809336
:104D90003D1710923C1710923B1784E690E09093D9
:104DA0003A17809339172CED30E030933817209361
:104DB00037172EE630E0309336172093351790934F
:104DC0003417809333178BE794E1A2E0B1E480932A
:104DD000820290938302A0938402B093850260E0E4
:104DE00070E080E89EE30E94E69B60937E027093F1
:104DF0007F02809380029093810267ED73EA84E8DA
:104E000092E40E94F29B60937A0270937B028093FB
:104E10007C0290937D0280E090E0A8ECB2E4809365
:104E2000760290937702A0937802B093790284E19E
:104E300090E090931302809312020E94959010923A
:104E40001C0680E090E0A0EEBFE380932C029093DC
:104E50002D02A0932E02B0932F020E94B855EEEEC1
:104E6000FEE08491882341F09091C00095FFFCCF33
:104E70008093C6003196F5CFEDE2F6E08491882369
:104E800041F09091C00095FFFCCF8093C600319611
:104E9000F5CF8091C00085FFFCCF8AE08093C600EB
:104EA000E0960FB6F894DEBF0FBECDBFDF91CF9175
:104EB0001F910F91FF90EF90DF90BF90AF900895FA
:104EC000CF93C82F882389F14091AD105091AE1037
:104ED0006091AF107091B01085E196E00E94AF3004
:104EE0004091B1105091B2106091B3107091B41014
:104EF00082E196E00E94AF304091B5105091B6101B
:104F00006091B7107091B8108FE096E00E94AF30BA
:104F10004091B9105091BA106091BB107091BC10C3
:104F20008CE096E00E94AF302FC0EEEEFEE0849160
:104F3000882341F09091C00095FFFCCF8093C6007C
:104F40003196F5CFEDE1F6E08491882341F0909120
:104F5000C00095FFFCCF8093C6003196F5CF8091BD
:104F6000C00085FFFCCF8AE08093C600EEEEFEE035
:104F70008491882309F4A8CF9091C00095FFFCCFBD
:104F80008093C6003196F4CF8091C00085FFFCCF9E
:104F90008AE08093C600CC2389F14091BD105091E6
:104FA000BE106091BF107091C01089EE95E00E9414
:104FB000AF304091C1105091C2106091C3107091F8
:104FC000C41086EE95E00E94AF304091C51050911C
:104FD000C6106091C7107091C81083EE95E00E94D2
:104FE000AF304091C9105091CA106091CB107091B0
:104FF000CC1080EE95E00E94AF302FC0EEEEFEE0C8
:105000008491882341F09091C00095FFFCCF80935C
:10501000C6003196F5CFE2EFF5E08491882341F0A8
:105020009091C00095FFFCCF8093C6003196F5CFDC
:105030008091C00085FFFCCF8AE08093C600EEEE31
:10504000FEE08491882309F4A8CF9091C00095FFD9
:10505000FCCF8093C6003196F4CF8091C00085FFCD
:10506000FCCF8AE08093C600CC2389F140919D104B
:1050700050919E1060919F107091A01089EB95E067
:105080000E94C0304091A1105091A2106091A310D5
:105090007091A41086EB95E00E94C0304091A5105D
:1050A0005091A6106091A7107091A81083EB95E025
:1050B0000E94C0304091A9105091AA106091AB108D
:1050C0007091AC1080EB95E00E94C0302FC0EEEEE6
:1050D000FEE08491882341F09091C00095FFFCCFC1
:1050E0008093C6003196F5CFE2ECF5E084918823F9
:1050F00041F09091C00095FFFCCF8093C60031969F
:10510000F5CF8091C00085FFFCCF8AE08093C60078
:10511000EEEEFEE08491882309F4A8CF9091C000C0
:1051200095FFFCCF8093C6003196F4CF8091C000EC
:1051300085FFFCCF8AE08093C600CC2319F1409113
:10514000951050919610609197107091981085E786
:1051500095E00E94AF304091911050919210609173
:1051600093107091941082E795E0F9D740918D10DB
:1051700050918E1060918F10709190108FE695E095
:10518000EED72FC0EEEEFEE08491882341F090919F
:10519000C00095FFFCCF8093C6003196F5CFEEE7B7
:1051A000F5E08491882341F09091C00095FFFCCFF9
:1051B0008093C6003196F5CF8091C00085FFFCCF6B
:1051C0008AE08093C600EEEEFEE08491882309F425
:1051D000B6CF9091C00095FFFCCF8093C60031966A
:1051E000F4CF8091C00085FFFCCF8AE08093C60099
:1051F000CC2309F443C04091991050919A106091CA
:105200009B1070919C1083EB94E0A9D740917D1086
:1052100050917E1060917F107091801080EB94E02F
:105220009ED74091CD105091CE106091CF107091CB
:10523000D0108DEA94E0A4D74091891050918A1043
:1052400060918B1070918C108AEA94E088D740911D
:10525000851050918610609187107091881087EAB0
:1052600094E07DD74091811050918210609183101D
:105270007091841084EA94E072D72FC0EEEEFEE0C5
:105280008491882341F09091C00095FFFCCF8093DA
:10529000C6003196F5CFECEBF4E08491882341F021
:1052A0009091C00095FFFCCF8093C6003196F5CF5A
:1052B0008091C00085FFFCCF8AE08093C600EEEEAF
:1052C000FEE08491882309F496CF9091C00095FF69
:1052D000FCCF8093C6003196F4CF8091C00085FF4B
:1052E000FCCF8AE08093C600CC2311F140911006D8
:1052F00050911106609112067091130689E894E0AE
:105300002ED74091140650911506609116067091A3
:10531000170686E894E023D74091180650911906A5
:1053200060911A0670911B0683E894E018D72FC08D
:10533000EEEEFEE08491882341F09091C00095FF4D
:10534000FCCF8093C6003196F5CFE2E9F4E084917A
:10535000882341F09091C00095FFFCCF8093C60058
:105360003196F5CF8091C00085FFFCCF8AE0809315
:10537000C600EEEEFEE08491882309F4B7CF909149
:10538000C00095FFFCCF8093C6003196F4CF80918A
:10539000C00085FFFCCF8AE08093C600CC2311F1CA
:1053A00040913D1750913E17662757FD6095762F27
:1053B0008BE594E0E5D640913B1750913C1766276A
:1053C00057FD6095762F88E594E0DAD6409139173D
:1053D00050913A17662757FD6095762F85E594E042
:1053E000CFD62FC0EEEEFEE08491882341F090915D
:1053F000C00095FFFCCF8093C6003196F5CFE7E65D
:10540000F4E08491882341F09091C00095FFFCCF97
:105410008093C6003196F5CF8091C00085FFFCCF08
:105420008AE08093C600EEEEFEE08491882309F4C2
:10543000B7CF9091C00095FFFCCF8093C600319606
:10544000F4CF8091C00085FFFCCF8AE08093C60036
:10545000CC2311F14091371750913817662757FD2B
:105460006095762F89E494E08BD640913517509162
:105470003617662757FD6095762F86E494E080D630
:105480004091331750913417662757FD6095762F5A
:1054900083E494E075D60DC0EEEEFEE0849188239F
:1054A000C9F29091C00095FFFCCF8093C600319661
:1054B000F5CF8091C00085FFFCCF8AE08093C600C5
:1054C000CC2309F43CC04091820250918302609148
:1054D0008402709185028CE294E041D660917E0254
:1054E00070917F0280918002909181020E94EC9BDA
:1054F000AB01BC0189E294E032D660917A027091EE
:105500007B0280917C0290917D020E94F89BAB010E
:10551000BC0186E294E023D6409176025091770256
:10552000609178027091790283E294E018D66091DC
:1055300012027091130280E294E000D62FC0EEEECA
:10554000FEE08491882341F09091C00095FFFCCF4C
:105550008093C6003196F5CFE5E3F4E0849188238B
:1055600041F09091C00095FFFCCF8093C60031962A
:10557000F5CF8091C00085FFFCCF8AE08093C60004
:10558000EEEEFEE08491882309F49DCF9091C00057
:1055900095FFFCCF8093C6003196F4CF8091C00078
:1055A00085FFFCCF8AE08093C600CC2361F0409158
:1055B0002C0250912D0260912E0270912F028AEFE1
:1055C00093E0CDD545C0EEEEFEE08491882341F016
:1055D0009091C00095FFFCCF8093C6003196F5CF27
:1055E000EDE0F4E08491882341F09091C00095FFB4
:1055F000FCCF8093C6003196F5CF80911C068111B7
:1056000003C0E3E0F4E00CC08091C00085FFFCCF54
:105610000EC09091C00095FFFCCF8093C6003196DC
:1056200084918111F6CF8091C00085FFFCCF8AE084
:105630008093C600EEEEFEE08491882309F4B7CF94
:105640009091C00095FFFCCF8093C6003196F4CFB7
:105650008091C00085FFFCCF8AE08093C6008091D6
:105660001C06811123C0C1110DC0EEEEFEE007C083
:105670009091C00095FFFCCF8093C6003196849135
:105680008111F6CFE0EFF3E007C09091C00095FFE5
:10569000FCCF8093C600319684918111F6CF809122
:1056A000C00085FFFCCF8AE08093C600CC2361F068
:1056B0004091E4055091E5056091E6057091E7059C
:1056C00082ED93E04CD52EC0EEEEFEE0849188236F
:1056D00041F09091C00095FFFCCF8093C6003196B9
:1056E000F5CFEBEDF3E08491882341F09091C00079
:1056F00095FFFCCF8093C6003196F5CF8091C00016
:1057000085FFFCCF8AE08093C600EEEEFEE0849138
:10571000882371F29091C00095FFFCCF8093C60062
:105720003196F5CF8091C00085FFFCCF8AE0809351
:10573000C600CF910895CF92DF92EF92FF920F9320
:105740001F93CF93DF93CDB7DEB76B970FB6F89467
:10575000DEBF0FBECDBF84E690E0988F8F8B86E5CD
:1057600092E3A3E3B0E08D879E87AF87B88B44E0D8
:10577000BE016F5E7F4FCE01479621D843E050E0D7
:10578000BE016F5E7F4FCE010D960E94E0EE892B29
:1057900011F010DABFC119861A861B861C8640E1FB
:1057A0006DEA70E1CE0147960AD840E16DEB70E1F9
:1057B000CE01479604D840E16DE970E1CE014796ED
:1057C0000E94DF230E946E7544E065E970E1CE011E
:1057D00047960E94DF2344E061E970E1CE014796DD
:1057E0000E94DF2344E06DE870E1CE0147960E94FD
:1057F000DF2344E069E970E1CE0147960E94DF2390
:1058000044E06DE770E1CE0147960E94DF2344E05B
:105810006DEC70E1CE0147960E94DF2344E069E819
:1058200070E1CE0147960E94DF2344E065E870E115
:10583000CE0147960E94DF2344E061E870E1CE018B
:1058400047960E94DF234CE060E176E0CE01479668
:105850000E94DF231B8E1A8E198E41E0BE01655E09
:105860007F4FCE0147960E94DF2344E0BE01675F71
:105870007F4FCE0147960E94DF2341E0BE01665E66
:105880007F4FCE0147960E94DF2341E0BE01675E55
:105890007F4FCE0147960E94DF2310E09A8D898DBD
:1058A000212F30E0989FC001112444E028173907C8
:1058B0004CF4BE01675F7F4FCE0147960E94DF2305
:1058C0001F5FECCF64EE75E0CE0147960E94DF23A8
:1058D00019861A861B861C861AE0115049F044E08E
:1058E000BE01675F7F4FCE0147960E94DF23F5CF51
:1058F00042E06DE377E1CE0147960E94DF2342E06C
:105900006BE377E1CE0147960E94DF2342E069E333
:1059100077E1CE0147960E94DF2342E067E377E11B
:10592000CE0147960E94DF2342E065E377E1CE0196
:1059300047960E94DF2342E063E377E1CE0147967A
:105940000E94DF2344E0BE01675F7F4FCE01479690
:105950000E94DF2311110EC0C984DA84EB84FC8419
:1059600020E030E84BE355E4C701B6010E9413E79D
:10597000811102C004E01EC0C0928202D092830254
:10598000E0928402F092850244E06EE772E0CE017C
:1059900047960E94DF2344E06AE772E0CE01479613
:1059A0000E94DF2344E066E772E0CE0147960E9442
:1059B000DF230BC0015049F044E0BE01675F7F4F19
:1059C000CE0147960E94DF23F5CF1F5F143009F008
:1059D000B9CF42E062E172E0CE0147960E94DF2338
:1059E00044E0BE01675F7F4FCE0147960E94DF23F0
:1059F00020E030E84BE355E469857A858B859C850A
:105A00000E9413E744E0BE0181110BC0675F7F4F26
:105A1000CE0147960E94DF2344E0BE01675F7F4FBF
:105A20000AC06B5F7F4FCE0147960E94DF2344E0A0
:105A3000BE016F5F7F4FCE0147960E94DF2342E099
:105A4000BE016B5E7F4FCE0147960E94DF2344E08C
:105A5000BE01675F7F4FCE0147960E94DF2341E082
:105A60006CE176E0CE0147960E94DF2310E044E02F
:105A7000BE01675F7F4FCE0147960E94DF23111161
:105A80000CC089859A85AB85BC8580932C02909348
:105A90002D02A0932E02B0932F021F5F143039F70E
:105AA0000E94B8550E949590EEEEFEE08491882306
:105AB00041F09091C00095FFFCCF8093C6003196D5
:105AC000F5CFFE013D968191882339F09091C00079
:105AD00095FFFCCF8093C600F6CF4F89588D66277F
